:100000000C942A000C9411010C9411010C94110110
:100010000C9411010C9411010C9411010C94110118
:100020000C9411010C9411010C9411010C94110108
:100030000C9411010C9411010C9411010C941101F8
:100040000C9411010C9411010C9411010C941101E8
:100050000C94110111241FBECFE5D8E0DEBFCDBF47
:10006000E4E5F0E040E017C0B591A5913591259108
:10007000059107FD0CC095918591EF01F92FE82FAF
:1000800005900D92A217B307D9F7FE0104C01D9287
:10009000A217B307E1F7E435F40731F70E94E10056
:0800A0000C940001F894FFCF5D
:1000A800843008F080C0683008F07FC0423008F023
:1000B8007EC0813019F130F08230E1F1833009F4EB
:1000C80055C077C0442371F04130C1F42BB381E0AF
:1000D80090E0062E02C0880F991F0A94E2F7822B3F
:1000E8008BBB0CC02BB381E090E0062E02C0880FBA
:1000F800991F0A94E2F7809582238BBB442371F001
:100108004130C1F428B381E090E0062E02C0880F88
:10011800991F0A94E2F7822B88BB0CC028B381E0B0
:1001280090E0062E02C0880F991F0A94E2F7809586
:10013800822388BB442371F04130C1F425B381E0A8
:1001480090E0062E02C0880F991F0A94E2F7822BCE
:1001580085BB0CC025B381E090E0062E02C0880F55
:10016800991F0A94E2F78095822385BB442371F096
:10017800413009F522B381E090E002C0880F991F51
:100188006A95E2F7822B82BB80E0089522B381E072
:1001980090E002C0880F991F6A95E2F78095822344
:1001A80082BB80E0089582E0089583E0089586E0A8
:0A01B800089580E0089580E00895A6
:1001C2000E940B0141E060E080E00E9454002FE9B0
:1001D20086E891E0215080409040E1F700C00000A5
:1001E20040E060E080E00E9454002FE986E891E060
:0E01F200215080409040E1F700C00000E3CFB4
:10020000EC010E9416010E941501CE010E94170107
:06021000CE010E94130163
:0C02160081E08ABB17BA8BBB18BA0895B0
:040222000C94000038
:040226000E945200E0
:02022A00089535
:02022C00089533
:02022E00089531
:00000001FF
