:100000000C942A000C9447000C9447000C94470071
:100010000C9447000C9447000C9447000C94470044
:100020000C9447000C9447000C9447000C94470034
:100030000C9447000C9447000C9447000C94470024
:100040000C9497130C9447000C9447000C944700B1
:100050000C94470011241FBECFE5D8E0DEBFCDBF12
:1000600012E0A0E6B0E0E6EBF2E602C005900D92E9
:10007000A437B107D9F712E0A4E7B2E001C01D929E
:10008000A73DB107E1F70E94512D0C9459310C9412
:100090000000EF92FF920F931F937B018C0120E0F1
:1000A00030E040E05FE40E942E1088238CF0C8010D
:1000B000B70120E030E040E05FE40E94A60E0E941D
:1000C0008E109B01AC01205030404040504806C08B
:1000D000C801B7010E948E109B01AC01B901CA0191
:1000E0001F910F91FF90EF900895AEE5B0E0EBE720
:1000F000F0E00C942231A8E04E010894811C911C80
:10010000F4016A2E11926A94E9F729833A834B83AA
:100110005C836D837E838F839887CE010996FC0173
:100120001192AA95E9F7A986BA86CB86DC86ED8678
:10013000FE860F87188B29843A844B845C84ED8477
:10014000FE840F85188969807A808B809C806DA6DB
:100150007EA68FA698AA6D807E808F809884E114F9
:10016000F1040105110509F0B3C36214730484049A
:10017000950408F03DC100E0201600E0300601E0E3
:10018000400600E0500688F41FEF211631044104B8
:10019000510439F030F048E0E42EF12C012D112DFE
:1001A00018C0EE24FF24870114C020E0221620E0AE
:1001B000320620E0420621E0520630F038E1E32E1C
:1001C000F12C012D112D05C020E1E22EF12C012D85
:1001D000112DD201C1010E2C04C0B695A79597959B
:1001E00087950A94D2F787509F4FDC012C9180E2CB
:1001F00090E0A0E0B0E08E199F09A00BB10B7C014C
:100200008D01E21AF10801091109E114F104010557
:100210001105A1F10E2C04C0220C331C441C551CEA
:100220000A94D2F7A40193010E2C04C0220F331FAD
:10023000441F551F0A94D2F780E290E08E199F095F
:100240006DA47EA48FA498A804C0969487947794F4
:1002500067948A95D2F7622A732A842A952AADA4D4
:10026000BEA4CFA4D8A804C0AA0CBB1CCC1CDD1C07
:10027000EA94D2F7ADA6BEA6CFA6D8AA6201EE2414
:10028000FF24CDAADEAAEFAAF8AE92018101207068
:10029000307009AF1AAF2BAF3CAFC401B301A70157
:1002A00096010E9400317B018C01C401B3012DA98C
:1002B0003EA94FA958AD0E940031C901DA013C01A5
:1002C0004D01C401B30129AD3AAD4BAD5CAD0E9407
:1002D000BA309B01AC018701FF24EE24ADA4BEA47B
:1002E000CFA4D8A8C601AA27BB2757016801A82A0E
:1002F000B92ACA2ADB2AA216B306C406D506E0F438
:1003000008946108710881089108A20CB31CC41CF0
:10031000D51CA214B304C404D50470F0A216B3060D
:10032000C406D50648F4089461087108810891084C
:10033000A20CB31CC41CD51CA21AB30AC40AD50A49
:10034000C601B5012DA93EA94FA958AD0E940031A3
:100350007B018C01C601B5012DA93EA94FA958AD5D
:100360000E940031C901DA015C016D01C601B501CD
:1003700029AD3AAD4BAD5CAD0E94BA309B01AC01EA
:100380008701FF24EE248DA59EA5AFA5B8A9A07076
:10039000B070E82AF92A0A2B1B2BE216F306040791
:1003A0001507C0F40894A108B108C108D108E20CEF
:1003B000F31C041D151DE214F3040405150550F08B
:1003C000E216F3060407150728F40894A108B108FB
:1003D000C108D108D3019927882786017501E82A29
:1003E000F92A0A2B1B2BE9AAFAAA0BAB1CABCFC428
:1003F000211431044104510471F461E070E080E0A3
:1004000090E020E030E040E050E00E940031C9017F
:10041000DA011C012D0100E0201600E0300601E0A9
:10042000400600E0500688F41FEF21163104410415
:10043000510431F028F048E050E060E070E017C06F
:1004400040E050E060E070E012C020E0221620E0C2
:10045000320620E0420621E0520628F048E150E052
:1004600060E070E004C040E150E060E070E0D20184
:10047000C101042E04C0B695A795979587950A9457
:10048000D2F787509F4FDC012C91E0E2EE2EF12C49
:10049000012D112DD801C701841B950BA60BB70B9D
:1004A000821B9109A109B1090097A105B10561F469
:1004B00064015301A218B308C408D50831E0632EC3
:1004C000712C812C912C1EC16F968FAF6F97082EC7
:1004D00004C0220C331C441C551C0A94D2F7EE2D88
:1004E000E81B640153010E2E04C0D694C794B79440
:1004F000A7940A94D2F7A40193016F960FAC6F975B
:1005000004C0220F331F441F551F0A94D2F76DA455
:100510007EA48FA498A80E2E04C0969487947794F6
:1005200067940A94D2F784017301E22AF32A042B18
:10053000152BE9A6FAA60BA71CA73201882499243B
:10054000920181012070307021960CAF1DAF2EAF4B
:100550003FAF2197C601B501A40193010E9400316C
:100560007B018C01C601B501A40193010E940031F9
:10057000C901DA0125968CAF9DAFAEAFBFAF25970D
:10058000BC01CD0121962CAD3DAD4EAD5FAD2197A7
:100590000E94BA309B01AC018701FF24EE24A9A47C
:1005A000BAA4CBA4DCA4C601AA27BB275C016D01B9
:1005B000AE28BF28C02AD12AA216B306C406D50683
:1005C00060F525966CAD7DAD8EAD9FAD25976150E4
:1005D00070408040904025966CAF7DAF8EAF9FAF4E
:1005E0002597A20CB31CC41CD51CA214B304C404CC
:1005F000D50498F0A216B306C406D50670F461506F
:1006000070408040904025966CAF7DAF8EAF9FAF1D
:100610002597A20CB31CC41CD51CA21AB30AC40A89
:10062000D50AC601B501A40193010E9400317B01E6
:100630008C01C601B501A40193010E940031C901DA
:10064000DA013C014D01C401B30121962CAD3DAD51
:100650004EAD5FAD21970E94BA309B01AC0187017E
:10066000FF24EE2489A59AA5ABA5BCA5A070B07007
:1006700057016801A82AB92ACA2ADB2AA216B3069A
:10068000C406D506E0F40894610871088108910851
:10069000A20CB31CC41CD51CA214B304C404D504FE
:1006A00070F0A216B306C406D50648F40894610893
:1006B000710881089108A20CB31CC41CD51C8DA51F
:1006C0009EA5AFA5B8A96F960FAC6F9704C0880F11
:1006D000991FAA1FBB1F0A94D2F78DA79EA7AFA789
:1006E000B8ABA21AB30AC40AD50A2596ECACFDAC85
:1006F0000EAD1FAD2597D70199278827682A792A3B
:100700008A2A9B2A82012227332729960CAF1DAF04
:100710002EAF3FAF2997A2019101407050702D96E6
:100720002CAF3DAF4EAF5FAF2D97C601B5012996F7
:100730002CAD3DAD4EAD5FAD29970E9400317B01E0
:100740008C01C601B50129962CAD3DAD4EAD5FAD16
:1007500029970E940031C901DA0161968CAF9DAFE3
:10076000AEAFBFAF6197BC01CD012D962CAD3DADB5
:100770004EAD5FAD2D970E94BA309B01AC01870151
:10078000FF24EE24ADA4BEA4CFA4D8A8C601AA27F6
:10079000BB2757016801A82AB92ACA2ADB2AA21650
:1007A000B306C406D50660F561966CAD7DAD8EAD21
:1007B0009FAD6197615070408040904061966CAFF2
:1007C0007DAF8EAF9FAF6197A20CB31CC41CD51C2C
:1007D000A214B304C404D50498F0A216B306C40648
:1007E000D50670F4615070408040904061966CAFC7
:1007F0007DAF8EAF9FAF6197A20CB31CC41CD51CFC
:10080000A21AB30AC40AD50AC601B50129962CADAD
:100810003DAD4EAD5FAD29970E9400317B018C014B
:10082000C601B50129962CAD3DAD4EAD5FAD299702
:100830000E940031C901DA015C016D01C601B501F8
:100840002D962CAD3DAD4EAD5FAD2D970E94BA30CB
:100850009B01AC018701FF24EE248DA59EA5AFA5C9
:10086000B8A9A070B070E82AF92A0A2B1B2BE2164F
:10087000F30604071507C0F40894A108B108C108DD
:10088000D108E20CF31C041D151DE214F304040549
:10089000150550F0E216F3060407150728F408942E
:1008A000A108B108C108D1086196ECACFDAC0EAD51
:1008B0001FAD6197D7019927882796018501082BDD
:1008C000192B2A2B3B2B09AB1AAB2BAB3CAB62C2CF
:1008D0006E147F048006910608F451C220E0E216EF
:1008E00020E0F20621E0020720E0120788F43FEF43
:1008F000E316F1040105110531F028F048E050E05D
:1009000060E070E017C040E050E060E070E012C0CE
:1009100040E0E41640E0F40640E0040741E014073C
:1009200028F048E150E060E070E004C040E150E0B1
:1009300060E070E0D801C701042E04C0B695A79509
:10094000979587950A94D2F787509F4FDC012C9199
:1009500030E2A32EB12CC12CD12CD601C501841BB1
:10096000950BA60BB70B821B9109A109B109009742
:10097000A105B10589F4E614F7040805190508F482
:10098000F2C16DA47EA48FA498A862147304840499
:10099000950408F0E8C1F3C16E968FAF6E97082EEC
:1009A00004C0EE0CFF1C001F111F0A94D2F76A2D21
:1009B000681BD201C101062E04C0B695A795979574
:1009C00087950A94D2F75C016D01AE28BF28C02A32
:1009D000D12AADA2BEA2CFA2D8A6720161016E96A5
:1009E0000FAC6E9704C0CC0CDD1CEE1CFF1C0A94EF
:1009F000D2F7C9A2DAA2EBA2FCA264015301062E2F
:100A000004C0D694C794B794A7940A94D2F7D4019B
:100A1000C3016E960FAC6E9704C0880F991FAA1F72
:100A2000BB1F0A94D2F7EDA4FEA40FA518A904C019
:100A300016950795F794E7946A95D2F73701480120
:100A4000682A792A8A2A9B2A6D8E7E8E8F8E98A29A
:100A5000EDA0FEA00FA118A53801882499249801C3
:100A600087012070307065960CAF1DAF2EAF3FAF81
:100A70006597C601B501A40193010E9400317B0175
:100A80008C01C601B501A40193010E940031C90186
:100A9000DA011C012D01C201B10165962CAD3DADFD
:100AA0004EAD5FAD65970E94BA309B01AC018701E6
:100AB000FF24EE24AD8CBE8CCF8CD8A0C601AA2713
:100AC000BB2757016801A82AB92ACA2ADB2AA2161D
:100AD000B306C406D50600F508942108310841087C
:100AE0005108EDA0FEA00FA118A5AE0CBF1CC01EA2
:100AF000D11EAE14BF04C006D10670F0A216B30614
:100B0000C406D50648F40894210831084108510864
:100B1000AE0CBF1CC01ED11EA21AB30AC40AD50A4D
:100B2000C601B501A40193010E9400317B018C0133
:100B3000C601B501A40193010E940031C901DA0187
:100B40003C014D01C401B30165962CAD3DAD4EADE8
:100B50005FAD65970E94BA309B01AC018701FF240D
:100B6000EE248D8D9E8DAF8DB8A1A070B070570111
:100B70006801A82AB92ACA2ADB2AA216B306C40623
:100B8000D50600F5089461087108810891086DA1E7
:100B90007EA18FA198A5A60EB71EC81ED91EA616A7
:100BA000B706C806D90670F0A216B306C406D50665
:100BB00048F408946108710881089108A60EB71ED0
:100BC000C81ED91ED601C501821B930BA40BB50B01
:100BD000898F9A8FAB8FBC8FD101992788276401A9
:100BE0005301A82AB92ACA2ADB2AA9AABAAACBAAD7
:100BF000DCAA860175012FEF3FEF40E050E0E222D2
:100C0000F32204231523A601662777276D964CAFA0
:100C10005DAF6EAF7FAF6D97A9A0BAA0CBA0DCA0EF
:100C20006FEF7FEF80E090E0A622B722C822D922A2
:100C300089A19AA1ABA1BCA11D0144245524C801DE
:100C4000B701A60195010E94BA3069966CAF7DAFDD
:100C50008EAF9FAF6997C801B701A20191010E94B1
:100C6000BA303B014C016D966CAD7DAD8EAD9FAD44
:100C70006D97A60195010E94BA307B018C016D969B
:100C80006CAD7DAD8EAD9FAD6D97A20191010E94BF
:100C9000BA305B016C01A8019701260D371D481D74
:100CA000591D69966CAC7DAC8EAC9FAC6997C40144
:100CB000AA27BB27280F391F4A1F5B1F2E153F0588
:100CC0004007510748F4E12CF12C61E0062F112D6B
:100CD000AE0CBF1CC01ED11ECA01AA27BB27BC0177
:100CE000CD016A0D7B1D8C1D9D1D698C7A8C8B8CB2
:100CF0009C8C661677068806990640F1661577057E
:100D00008805990509F043C0D90199278827699674
:100D10002CAD3DAD4EAD5FAD699740705070820F08
:100D2000931FA41FB51F2DA53EA54FA558A96E96CC
:100D30000FAC6E9704C0220F331F441F551F0A9437
:100D4000D2F7281739074A075B0708F509A91AA936
:100D50002BA93CA9015010402040304009AB1AABF0
:100D60002BAB3CAB14C066247724430121E030E078
:100D700040E050E029AB3AAB4BAB5CAB0BC0662418
:100D80007724430119AA1AAA1BAA1CAA03C0662425
:100D900077244301FE01719688E0DF011D928A9558
:100DA000E9F7A9A8BAA8CBA8DCA8A98ABA8ACB8AED
:100DB000DC8A6D8A7E8A8F8A988E29A93A894B8926
:100DC0005C89662D7E898F89988DC25ADF4FE2E15A
:100DD0000C943E31ABE5B0E0E0EFF6E00C9422314C
:100DE000A8E04E010894811C911CF4016A2E119216
:100DF0006A94E9F729833A834B835C836D837E830E
:100E00008F839887CE010996FC011192AA95E9F784
:100E1000A986BA86CB86DC86ED86FE860F87188B80
:100E200029843A844B845C84AD84BE84CF84D88882
:100E300029813A814B815C8169962FAF69976A96C7
:100E40003FAF6A976B964FAF6B976C965FAF6C979F
:100E50006C966CAC7DAC8EAC9FAC6C9769AA7AAA90
:100E60008BAA9CAA6D817E818F8198853B014C0164
:100E70006DAA7EAA8FAA98AEA114B104C104D104B0
:100E800009F004C3621473048404950408F000C1DB
:100E900000E0201600E0300601E0400600E05006C9
:100EA00088F41FEF211631044104510439F030F069
:100EB00088E0E82EF12C012D112D18C0EE24FF241E
:100EC000870114C040E0241640E0340640E04406A8
:100ED00041E0540630F0B8E1EB2EF12C012D112D3C
:100EE00005C0A0E1EA2EF12C012D112DD201C10186
:100EF0000E2C04C0B695A795979587950A94D2F7BE
:100F000087509F4FDC012C9180E290E0A0E0B0E0A0
:100F10008E199F09A00BB10B5C016D01A21AB108DB
:100F2000C108D108A9AEBAAECBAEDCAEA114B104F3
:100F3000C104D10409F43FC069AD062E04C0220CDF
:100F4000331C441C551C0A94D2F7A4019301062EAD
:100F500004C0220F331F441F551F0A94D2F780E2AA
:100F600090E08A199B096C96CCACDDACEEACFFAC82
:100F70006C9704C0F694E794D794C7948A95D2F7F7
:100F800087017601E22AF32A042B152BEDAAFEAA8B
:100F90000FAB18AF6C968CAD9DADAEADBFAD6C9781
:100FA00004C0880F991FAA1FBB1F6A95D2F789AB8F
:100FB0009AABABABBCAB320188249924B201A1013E
:100FC0006070707021964CAF5DAF6EAF7FAF2197B0
:100FD0006DA97EA98FA998ADA40193010E9400314B
:100FE0007B018C016DA97EA98FA998ADA401930105
:100FF0000E940031CA01B90121962CAD3DAD4EAD24
:101000005FAD21970E94BA309B01AC018701FF249C
:10101000EE24A9A8BAA8CBA8DCA8C601AA27BB279A
:1010200057016801A82AB92ACA2ADB2AA216B306E0
:10103000C406D50690F4A20CB31CC41CD51CA21483
:10104000B304C404D50448F0A216B306C406D506FA
:1010500020F4A20CB31CC41CD51CA21AB30AC40AE7
:10106000D50AC601B501A40193010E9400317B019C
:101070008C01C601B501A40193010E940031CA018F
:10108000B90121962CAD3DAD4EAD5FAD2197BAC1F2
:10109000211431044104510471F461E070E080E0F6
:1010A00090E020E030E040E050E00E940031C901D3
:1010B000DA011C012D0100E0201600E0300601E0FD
:1010C000400600E0500688F41FEF21163104410469
:1010D000510439F030F068E0E62EF12C012D112D8D
:1010E00018C0EE24FF24870114C040E0241640E01D
:1010F000340640E0440641E0540630F058E1E52E65
:10110000F12C012D112D05C040E1E42EF12C012D13
:10111000112DD201C1010E2C04C0B695A79597954B
:1011200087950A94D2F787509F4FDC012C9130E2CB
:10113000A32EB12CC12CD12CD601C5018E199F092B
:10114000A00BB10B7C018D01E21AF1080109110914
:10115000E9AEFAAE0BAF1CAFE114F10401051105C5
:1011600039F464015301A218B308C408D508E2C0D9
:10117000F9AC6896FFAE68970F2C04C0220C331CA4
:10118000441C551C0A94D2F78A2D8F19640153010F
:10119000082E04C0D694C794B794A7940A94D2F7A3
:1011A000A401930104C0220F331F441F551FFA945A
:1011B000D2F76C966CAC7DAC8EAC9FAC6C9704C0D7
:1011C00096948794779467948A95D2F784017301F3
:1011D000E22AF32A042B152BEDA6FEA60FA718ABC7
:1011E000320188249924B201A101607070702596A3
:1011F0004CAF5DAF6EAF7FAF2597C601B501A401BF
:1012000093010E9400317B018C01C601B501A4014C
:1012100093010E940031CA01B90125962CAD3DAD64
:101220004EAD5FAD25970E94BA309B01AC0187019E
:10123000FF24EE24ADA4BEA4CFA4D8A8C601AA273B
:10124000BB275C016D01AE28BF28C02AD12AA21697
:10125000B306C406D50690F4A20CB31CC41CD51C5E
:10126000A214B304C404D50448F0A216B306C406FD
:10127000D50620F4A20CB31CC41CD51CA21AB30AB8
:10128000C40AD50AC601B501A40193010E94003128
:101290007B018C01C601B501A40193010E940031BC
:1012A000CA01B90125962CAD3DAD4EAD5FAD259778
:1012B0000E94BA309B01AC018701FF24EE248DA56A
:1012C0009EA5AFA5B8A9A070B07057016801A82A63
:1012D000B92ACA2ADB2AA216B306C406D50690F498
:1012E000A20CB31CC41CD51CA214B304C404D504A2
:1012F00048F0A216B306C406D50620F4A20CB31C0F
:10130000C41CD51C6C96ECACFDAC0EAD1FAD6C973F
:1013100068960FAC689704C0EE0CFF1C001F111FED
:101320000A94D2F7E9AAFAAA0BAB1CABA21AB30A29
:10133000C40AD50A320188249924B201A10160703F
:10134000707029964CAF5DAF6EAF7FAF2997C60125
:10135000B501A40193010E9400317B018C01C601FB
:10136000B501A40193010E940031CA01B901299677
:101370002CAD3DAD4EAD5FAD29970E94BA309B01BB
:10138000AC018701FF24EE24A9A8BAA8CBA8DCA849
:10139000C601AA27BB2757016801A82AB92ACA2A69
:1013A000DB2AA216B306C406D50690F4A20CB31C21
:1013B000C41CD51CA214B304C404D50448F0A2165E
:1013C000B306C406D50620F4A20CB31CC41CD51C5D
:1013D000A21AB30AC40AD50AC601B501A401930131
:1013E0000E9400317B018C01C601B501A40193016B
:1013F0000E940031CA01B90129962CAD3DAD4EAD18
:101400005FAD29970E94BA309B01AC018701FF2490
:10141000EE2489A99AA9ABA9BCA9A070B070E82A4A
:10142000F92A0A2B1B2BE216F3060407150790F482
:10143000E20CF31C041D151DE214F304040515054C
:1014400048F0E216F3060407150720F4E20CF31C3B
:10145000041D151DE21AF30A040B150BD801C70170
:1014600009AC04C0B695A795979587950A94D2F7CD
:10147000898B9A8BAB8BBC8B1D8A1E8A1F8A188E18
:10148000282F3A894B895C896D890CC36A147B04C7
:101490008C049D0408F409C300E0A01600E0B00627
:1014A00001E0C00600E0D00688F41FEFA116B104E9
:1014B000C104D10439F030F028E0E22EF12C012DE6
:1014C000112D18C0EE24FF24870114C040E0A4169B
:1014D00040E0B40640E0C40641E0D40630F098E1B4
:1014E000E92EF12C012D112D05C080E1E82EF12C03
:1014F000012D112DD601C5010E2C04C0B695A7955E
:10150000979587950A94D2F787509F4FDC012C91CD
:1015100080E290E0A0E0B0E08E199F09A00BB10B33
:10152000821B9109A109B1090097A105B10509F034
:101530004FC0A614B704C804D90458F06C96ECAC9C
:10154000FDAC0EAD1FAD6C97E214F3040405150558
:1015500068F16C96ECACFDAC0EAD1FAD6C97E2186B
:10156000F30804091509A40193012A193B094C0940
:101570005D09AA24BB2465016C966CAD7DAD8EAD72
:101580009FAD6C976E157F058007910728F4B1E039
:10159000AB2EB12CC12CD12CDA01C9018A199B09BF
:1015A000AC09BD098DAB9EABAFABB8AFE98AFA8A87
:1015B0000B8B1C8B6DA87EA88FA898AC6D8A7E8A39
:1015C0008F8A988E2E2D3A894B895C896DA96AC2C3
:1015D00067968FAF6797A6019501082E04C0220F6A
:1015E000331F441F551F0A94D2F7A0E2AA2EA81A4F
:1015F0006696AFAE6697D201C10104C0B695A795B5
:1016000097958795AA94D2F76C017D01C22AD32AB7
:10161000E42AF52AC9A6DAA6EBA6FCA68201710186
:1016200067960FAC679704C0EE0CFF1C001F111FDC
:101630000A94D2F7EDA2FEA20FA318A764015301EA
:1016400066960FAC669704C0D694C794B794A794D7
:101650000A94D2F7A401930167960FAC679704C070
:10166000220F331F441F551F0A94D2F76C968CAD7E
:101670009DADAEADBFAD6C9766960FAC669704C0DE
:10168000B695A795979587950A94D2F73C014D0199
:10169000622A732A842A952A69A27AA28BA29CA222
:1016A0006C96ECACFDAC0EAD1FAD6C9767960FACB5
:1016B000679704C0EE0CFF1C001F111F0A94D2F79D
:1016C000ED8EFE8E0F8F18A349A55AA56BA57CA59C
:1016D0003B0188249924607070702D964CAF5DAFEB
:1016E0006EAF7FAF2D97C601B501A40193010E9493
:1016F00000317B018C01C601B501A40193010E9458
:101700000031C901DA011C012D01C201B1012D9680
:101710002CAD3DAD4EAD5FAD2D970E94BA309B0113
:10172000AC018701FF24EE24A9A0BAA0CBA0DCA0C5
:10173000C601AA27BB2757016801A82AB92ACA2AC5
:10174000DB2AA216B306C406D50600F508942108C4
:10175000310841085108E9A4FAA40BA51CA5AE0C58
:10176000BF1CC01ED11EAE14BF04C006D10670F04F
:10177000A216B306C406D50648F408942108310819
:1017800041085108AE0CBF1CC01ED11EA21AB30ADC
:10179000C40AD50AC601B501A40193010E94003113
:1017A0007B018C01C601B501A40193010E940031A7
:1017B000C901DA013C014D01C401B3012D962CADE4
:1017C0003DAD4EAD5FAD2D970E94BA309B01AC018F
:1017D0008701FF24EE2489A19AA1ABA1BCA1A0702E
:1017E000B07057016801A82AB92ACA2ADB2AA216B2
:1017F000B306C406D50600F508946108710881088F
:10180000910869A57AA58BA59CA5A60EB71EC81E32
:10181000D91EA616B706C806D90670F0A216B306DA
:10182000C406D50648F40894610871088108910837
:10183000A60EB71EC81ED91ED601C501821B930B6A
:10184000A40BB50B898F9A8FAB8FBC8FD1019927D1
:10185000882784017301E82AF92A0A2B1B2B4FEFF2
:10186000A42E4FEFB42EC12CD12CAE20BF20C0220D
:10187000D1227801002711276DA07EA08FA098A407
:101880004FEF5FEF60E070E06422752286229722BE
:101890008DA19EA1AFA1B8A5BD0188279927659606
:1018A0006CAF7DAF8EAF9FAF6597C601B501A40148
:1018B00093010E94BA3061966CAF7DAF8EAF9FAF3F
:1018C0006197C601B50165962CAD3DAD4EAD5FADDE
:1018D00065970E94BA301B012C01C801B701A40111
:1018E00093010E94BA305B016C01C801B701659693
:1018F0002CAD3DAD4EAD5FAD65970E94BA307B011A
:101900008C01A6019501220D331D441D551D6196C4
:101910006CAC7DAC8EAC9FAC6197C401AA27BB2791
:10192000280F391F4A1F5B1F2A153B054C055D0513
:1019300048F4812C912CE1E0AE2EB12CE80CF91C7E
:101940000A1D1B1DCA01AA27BB2757016801A80E43
:10195000B91ECA1EDB1EA9013327222761968CAD52
:101960009DADAEADBFAD6197A070B070280F391FAF
:101970004A1F5B1FE98CFA8C0B8D1C8DEA14FB044B
:101980000C051D0570F0AE14BF04C006D10669F544
:101990006D8D7E8D8F8D98A16217730784079507D3
:1019A00020F5DA01C9016DA07EA08FA098A4861948
:1019B0009709A809B909E9A4FAA40BA51CA5AE18B2
:1019C000BF08C00AD10AEE24FF248701281739076F
:1019D0004A075B0728F421E0E22EF12C012D112D9E
:1019E000AE18BF08C00AD10A02C0DA01C9016D8C65
:1019F0007E8C8F8C98A0681A790A8A0A9B0A498D76
:101A00005A8D6B8D7C8D4A195B096C097D095A01D1
:101A10006B012224332421016D8D7E8D8F8D98A141
:101A2000661577058805990528F481E0282E312C64
:101A3000412C512C86017501E218F308040915099F
:101A4000A801970166960FAC669704C0220F331F5A
:101A5000441F551F0A94D2F7D401C30167960FACF7
:101A6000679704C0B695A795979587950A94D2F77E
:101A7000282B392B4A2B5B2B298B3A8B4B8B5C8B7E
:101A800067960FAC679704C016950795F794E7948F
:101A90000A94D2F7ED8AFE8A0F8B188F3A894B8908
:101AA0005C896E2D7E898F89988DC55ADF4FE2E162
:101AB0000C943E31A0E0B0E0E0E6FDE00C94223171
:101AC000DC012B01FA019C91923008F439C1EB0141
:101AD0008881823008F433C1943069F4843009F08D
:101AE0002FC111969C9111978981981709F428C1EB
:101AF000A1EFB0E025C1843009F421C18230A9F4FE
:101B0000923009F01DC19A01AD0188E0EA01099007
:101B1000AE01E90109929E018150C1F7E20189817C
:101B200011969C918923818308C1923009F407C1E1
:101B300012962D903C901397EB018A819B8114960D
:101B4000AD90BD90CD90DC901797EC80FD800E811C
:101B50001F819101281B390BB90137FF04C066278B
:101B60007727621B730B603271050CF061C012168F
:101B700013066CF537014801062E04C0969487942D
:101B8000779467940A94D2F721E030E040E050E087
:101B900004C0220F331F441F551F6A95D2F72150EE
:101BA0003040404050402E213F21402351232115F9
:101BB00031054105510521F021E030E040E050E0E1
:101BC00079018A01E628F728082919293CC0232B26
:101BD000D1F1260E371E35014601062E04C096941B
:101BE0008794779467940A94D2F721E030E040E03C
:101BF00050E004C0220F331F441F551F6A95D2F7CF
:101C000021503040404050402A213B214C215D2151
:101C1000211531054105510521F021E030E040E07A
:101C200050E059016A01A628B728C828D9280BC056
:101C3000821593052CF01C01AA24BB24650103C066
:101C4000EE24FF24870111969C91D20111968C916C
:101C5000981709F445C0992339F0A80197012A196A
:101C60003B094C095D0906C0A60195012E193F09E3
:101C7000400B510B57FD08C011823382228224830E
:101C80003583468357831DC081E08183338222825E
:101C900088279927DC01821B930BA40BB50B848347
:101CA0009583A683B7830DC0220F331F441F551F92
:101CB000248335834683578382819381019793835D
:101CC00082832481358146815781DA01C9010197D8
:101CD000A109B1098F5F9F4FAF4FBF4328F30BC0DE
:101CE000918333822282EA0CFB1C0C1D1D1DE482B1
:101CF000F5820683178383E08083248135814681C2
:101D0000578157FF1AC0C901AA2797FDA095BA2F7E
:101D100081709070A070B070569547953795279553
:101D2000822B932BA42BB52B84839583A683B78317
:101D300082819381019693838283DF0101C0D20166
:101D4000CD01CDB7DEB7E2E10C943E31A0E2B0E0C8
:101D5000ECEAFEE00C942E3169837A838B839C83BA
:101D60002D833E834F835887E9E0EE2EF12CEC0E55
:101D7000FD1ECE010196B7010E94B7118E010F5EC4
:101D80001F4FCE010596B8010E94B7118A8991E0D4
:101D900089278A8BC701B801AE01475E5F4F0E9459
:101DA0005A0D0E94E210A096E6E00C944A31A0E29F
:101DB000B0E0EDEDFEE00C942E3169837A838B83E5
:101DC0009C832D833E834F835887F9E0EF2EF12CBF
:101DD000EC0EFD1ECE010196B7010E94B7118E01D7
:101DE0000F5E1F4FCE010596B8010E94B711C701C3
:101DF000B801AE01475E5F4F0E945A0D0E94E2108B
:101E0000A096E6E00C944A31A0E2B0E0EAE0FFE000
:101E10000C94223169837A838B839C832D833E8348
:101E20004F835887CE010196BE01675F7F4F0E94A6
:101E3000B711CE010596BE016F5E7F4F0E94B711AC
:101E40009985923088F089898230C8F0943019F4ED
:101E5000823051F404C0843029F4923081F481EF4F
:101E600090E0C6C0923049F420E09A858A899813A0
:101E700021E02A87CE010996BBC0823049F420E0D8
:101E80009A858A89981321E02A8BCE014196B0C0A9
:101E90002D843E844F8458886D887E888F88988CE6
:101EA000EE24FF248701AA24BB24650140E050E012
:101EB00060E070E0E0E0F0E0C10181709070892B9B
:101EC000E9F0E60CF71C081D191D9A01AB012A0D5B
:101ED0003B1D4C1D5D1D80E090E0A0E0B0E0E614ED
:101EE000F7040805190520F481E090E0A0E0B0E0D7
:101EF000BA01A901480F591F6A1F7B1FAA0CBB1CFE
:101F0000CC1CDD1C97FE08C081E090E0A0E0B0E0B2
:101F1000A82AB92ACA2ADB2A3196E032F10549F00B
:101F2000660C771C881C991C569447943794279408
:101F3000C3CFFA85EA892B893C898B859C85280F3C
:101F4000391F2E5F3F4F17C0CA0181709070892BD7
:101F500061F016950795F794E79480E090E0A0E093
:101F6000B0E8E82AF92A0A2B1B2B76956795579536
:101F700047952F5F3F4F77FDE7CF0CC0440F551FAC
:101F8000661F771F17FD4160EE0CFF1C001F111F1D
:101F900021503040403090E0590790E0690790E4CC
:101FA000790760F32B8F3C8FDB01CA018F7790702C
:101FB000A070B07080349105A105B10561F447FDB2
:101FC0000AC0E114F1040105110529F0405C5F4FDE
:101FD0006F4F7F4F40781A8EFE1711F081E08A8F85
:101FE0004D8F5E8F6F8F78A383E0898FCE014996E6
:101FF0000E94E210A096E2E10C943E31A8E1B0E02C
:10200000E4E0F0E10C942E3169837A838B839C8326
:102010002D833E834F83588789E0E82EF12CEC0E08
:10202000FD1ECE010196B7010E94B7118E010F5E11
:102030001F4FCE010596B8010E94B71189858230E5
:1020400040F08989823028F0C701B8010E942F1220
:1020500001C08FEF6896E6E00C944A31A8E1B0E049
:10206000E4E3F0E10C942E3169837A838B839C83C3
:102070002D833E834F83588789E0E82EF12CEC0EA8
:10208000FD1ECE010196B7010E94B7118E010F5EB1
:102090001F4FCE010596B8010E94B7118985823085
:1020A00040F08989823028F0C701B8010E942F12C0
:1020B00001C08FEF6896E6E00C944A31A8E1B0E0E9
:1020C000E4E6F0E10C942E3169837A838B839C8360
:1020D0002D833E834F83588789E0E82EF12CEC0E48
:1020E000FD1ECE010196B7010E94B7118E010F5E51
:1020F0001F4FCE010596B8010E94B7118985823025
:1021000040F08989823028F0C701B8010E942F125F
:1021100001C081E06896E6E00C944A31ACE0B0E0A2
:10212000E4E9F0E10C94323169837A838B839C83F8
:10213000CE010196BE016B5F7F4F0E94B7118D816A
:10214000823061F1823050F1843021F48E81882315
:1021500051F12EC02F81388537FD20C06E812F317F
:1021600031051CF06623F9F023C08EE190E0821B5C
:10217000930B29853A854B855C8504C05695479518
:10218000379527958A95D2F76623B1F050954095FB
:10219000309521953F4F4F4F5F4F0EC020E030E00C
:1021A00040E050E009C02FEF3FEF4FEF5FE704C082
:1021B00020E030E040E050E8B901CA012C96E2E0AE
:1021C0000C944E31DF92EF92FF920F931F93FC011C
:1021D000E480F58006811781D1808081823048F4C7
:1021E00080E090E0A0E1B0E0E82AF92A0A2B1B2B5E
:1021F000A5C0843009F49FC0823021F4EE24FF246E
:10220000870105C0E114F1040105110519F4E0E0AE
:10221000F0E096C0628173819FEF623879070CF01D
:102220005BC022E83FEF261B370B2A3131052CF02B
:1022300020E030E040E050E02AC0B801A701022EC3
:1022400004C076956795579547950A94D2F781E033
:1022500090E0A0E0B0E004C0880F991FAA1FBB1F48
:102260002A95D2F70197A109B1098E219F21A023B8
:10227000B1230097A105B10521F081E090E0A0E035
:10228000B0E09A01AB01282B392B4A2B5B2BDA01EA
:10229000C9018F779070A070B07080349105A1054E
:1022A000B10539F427FF09C0205C3F4F4F4F5F4F06
:1022B00004C0215C3F4F4F4F5F4FE0E0F0E0203023
:1022C000A0E03A07A0E04A07A0E45A0710F0E1E0D6
:1022D000F0E079018A0127C06038710564F5FB01DF
:1022E000E158FF4FD801C7018F779070A070B07090
:1022F00080349105A105B10539F4E7FE0DC080E4F5
:1023000090E0A0E0B0E004C08FE390E0A0E0B0E097
:10231000E80EF91E0A1F1B1F17FF05C0169507952B
:10232000F794E794319687E016950795F794E7942C
:102330008A95D1F705C0EE24FF248701EFEFF0E086
:102340006E2F679566276795902F9F77D794DD242A
:10235000D7948E2F8695492F462B582F5D29B7018C
:10236000CA011F910F91FF90EF90DF900895FC013B
:10237000DB01408151812281622F6F7770E0221F43
:102380002227221F9381892F880F822B282F30E04C
:10239000991F9927991F11969C9311972115310523
:1023A000A9F5411551056105710511F482E037C0A9
:1023B00082E89FEF13969C938E9312979A01AB013C
:1023C00067E0220F331F441F551F6A95D1F783E042
:1023D0008C930DC0220F331F441F551F12968D91F1
:1023E0009C911397019713969C938E93129720308C
:1023F00080E0380780E0480780E4580758F31496D7
:102400002D933D934D935C93179708952F3F31057E
:1024100079F4411551056105710519F484E08C9337
:10242000089564FF03C081E08C9312C01C9210C019
:102430002F57304013963C932E93129783E08C9342
:1024400087E0440F551F661F771F8A95D1F7706488
:1024500014964D935D936D937C93179708951F93F6
:10246000DC01FB019C91923008F447C080818230EE
:1024700008F443C0943051F411961C91843099F5BE
:102480008181682F70E0611B71093FC0843021F0A9
:10249000923031F48230B9F18181882389F12DC0E5
:1024A00011961C9111978230F1F081811817D9F49F
:1024B00012962D913C9113978281938182179307F5
:1024C00094F028173907BCF014968D919D910D90CA
:1024D000BC91A02D24813581468157812817390769
:1024E0004A075B0718F4112341F00AC082179307CB
:1024F000A407B50740F4112319F061E070E005C0AE
:102500006FEF7FEF02C060E070E0CB011F91089594
:10251000DF93CF9300D0CDB7DEB71A821982A6E23F
:10252000B0E0E6E2F0E0808180688C93E7E2F0E0E2
:1025300080818A838A818F738A838A8180648A8377
:10254000E7E2F0E08A818083A7E2B0E0E7E2F0E032
:1025500080818F7D8C93E6E2F0E080818A838A819E
:10256000887F8A838A8185608A83E6E2F0E08A81B7
:102570008083A6E2B0E0E6E2F0E0808188608C93A0
:1025800089810F900F90CF91DF910895DF93CF93C2
:10259000CDB7DEB72A970FB6F894DEBF0FBECDBF1A
:1025A00088877A8769871F821E821A821B821C8213
:1025B0001D821982A6E2B0E0E6E2F0E0808180624E
:1025C0008C9389859A85009709F458C0A7E2B0E0FA
:1025D000E7E2F0E08081807E8C93A7E2B0E0E7E262
:1025E000F0E090818885892B8C93A6E2B0E0E6E24A
:1025F000F0E0808180648C930BC08A819B81AC81E8
:10260000BD810196A11DB11D8A839B83AC83BD83CF
:10261000E6E2F0E0808182958F70882F90E08170F3
:102620009070009761F48A819B81AC81BD81803577
:1026300023EC920720E0A20720E0B207F0F28A81A3
:102640009B81AC81BD81803523EC920720E0A207FD
:1026500020E0B20719F486E0898312C0A6E2B0E058
:10266000E6E2F0E0808180618C93E4E2F0E080813A
:102670009181E985FA859183808302C085E0898311
:1026800089812A960FB6F894DEBF0FBECDBFCF91D9
:10269000DF910895DF93CF93CDB7DEB72A970FB6BA
:1026A000F894DEBF0FBECDBF8E8378876F835A87C5
:1026B00049871A821B821C821D8219828F8198850C
:1026C000009749F189859A85009729F1109278023F
:1026D0008F819885909375028093740289859A857D
:1026E0009093770280937602A7E2B0E0E7E2F0E011
:1026F0008081807E8C93A7E2B0E0E7E2F0E09081F9
:102700008E81892B8C93A6E2B0E0E6E2F0E0808136
:1027100088648C9302C085E0898389812A960FB6EC
:10272000F894DEBF0FBECDBFCF91DF9108951F9209
:102730000F920FB60F9211242F933F934F935F93F5
:102740006F937F938F939F93AF93BF93EF93FF9379
:10275000DF93CF93CDB7DEB7809178028823B1F4B1
:10276000A0917402B0917502E4E2F0E08081918161
:102770008D939C93E0917602F09177020995A6E201
:10278000B0E0E6E2F0E08081877F8C93CF91DF912B
:10279000FF91EF91BF91AF919F918F917F916F9139
:1027A0005F914F913F912F910F900FBE0F901F900F
:1027B0001895DF93CF93CDB7DEB7EAE3F0E080EF73
:1027C0008083E7E3F0E08FEF8083E4E3F0E08FEFD6
:1027D0008083E1E3F0E08FEF8083EBE3F0E08FEFC5
:1027E0008083E8E3F0E08FEF8083E5E3F0E08FEFB4
:1027F0008083E2E3F0E08FEF8083CF91DF91089553
:10280000DF93CF93CDB7DEB72D970FB6F894DEBF29
:102810000FBECDBF9B838A831982EA81FB818181B0
:10282000883008F073C3EA81FB818081282F30E073
:102830003D872C878C859D858130910509F4EAC000
:102840002C853D85223031052CF48C859D850097A3
:1028500071F059C32C853D852230310509F4ADC195
:102860008C859D858330910509F47AC24CC3EA8139
:10287000FB818281282F30E03B872A878A859B85D0
:102880008130910509F442C02A853B85223031050B
:102890002CF48A859B85009771F0B9C02A853B8509
:1028A0002230310509F45EC08A859B85833091050D
:1028B00009F482C0ACC0AAE3B0E0EAE3F0E08081B2
:1028C000482FEA81FB818181282F30E081E090E070
:1028D00002C0880F991F2A95E2F7809584238C9374
:1028E000ABE3B0E0EBE3F0E08081482FEA81FB81CD
:1028F0008181282F30E081E090E0022E02C0880F15
:10290000991F0A94E2F7842B8C9302C3AAE3B0E0E8
:10291000EAE3F0E08081482FEA81FB818181282F62
:1029200030E081E090E002C0880F991F2A95E2F71D
:10293000809584238C93ABE3B0E0EBE3F0E08081FF
:10294000482FEA81FB818181282F30E081E090E0EF
:10295000022E02C0880F991F0A94E2F78095842303
:102960008C93D6C2AAE3B0E0EAE3F0E08081482F7E
:10297000EA81FB818181282F30E081E090E002C074
:10298000880F991F2A95E2F7842B8C93ABE3B0E074
:10299000EBE3F0E08081482FEA81FB818181282FE1
:1029A00030E081E090E0022E02C0880F991F0A9467
:1029B000E2F7842B8C93ACC2AAE3B0E0EAE3F0E048
:1029C0008081482FEA81FB818181282F30E081E0DE
:1029D00090E002C0880F991F2A95E2F7842B8C9310
:1029E000ABE3B0E0EBE3F0E08081482FEA81FB81CC
:1029F0008181282F30E081E090E0022E02C0880F14
:102A0000991F0A94E2F7809584238C9381C283E016
:102A100089837EC2EA81FB818281282F30E0398759
:102A20002887888599858130910509F442C02885D9
:102A30003985223031052CF488859985009771F00D
:102A4000B9C0288539852230310509F45EC08885F2
:102A500099858330910509F482C0ACC0A7E3B0E04A
:102A6000E7E3F0E08081482FEA81FB818181282F14
:102A700030E081E090E002C0880F991F2A95E2F7CC
:102A8000809584238C93A8E3B0E0E8E3F0E08081B4
:102A9000482FEA81FB818181282F30E081E090E09E
:102AA000022E02C0880F991F0A94E2F7842B8C93A0
:102AB0002FC2A7E3B0E0E7E3F0E08081482FEA818E
:102AC000FB818181282F30E081E090E002C0880FF7
:102AD000991F2A95E2F7809584238C93A8E3B0E0B0
:102AE000E8E3F0E08081482FEA81FB818181282F93
:102AF00030E081E090E0022E02C0880F991F0A9416
:102B0000E2F7809584238C9303C2A7E3B0E0E7E368
:102B1000F0E08081482FEA81FB818181282F30E01D
:102B200081E090E002C0880F991F2A95E2F7842B7C
:102B30008C93A8E3B0E0E8E3F0E08081482FEA81DD
:102B4000FB818181282F30E081E090E0022E02C0DD
:102B5000880F991F0A94E2F7842B8C93D9C1A7E3BD
:102B6000B0E0E7E3F0E08081482FEA81FB818181DA
:102B7000282F30E081E090E002C0880F991F2A954D
:102B8000E2F7842B8C93A8E3B0E0E8E3F0E08081E7
:102B9000482FEA81FB818181282F30E081E090E09D
:102BA000022E02C0880F991F0A94E2F780958423B1
:102BB0008C93AEC183E08983ABC1EA81FB818281C2
:102BC000282F30E03F832E838E819F8181309105B5
:102BD00009F442C02E813F81223031052CF48E81D0
:102BE0009F81009771F0B9C02E813F81223031055D
:102BF00009F45EC08E819F818330910509F482C003
:102C0000ACC0A4E3B0E0E4E3F0E08081482FEA81C7
:102C1000FB818181282F30E081E090E002C0880FA5
:102C2000991F2A95E2F7809584238C93A5E3B0E061
:102C3000E5E3F0E08081482FEA81FB818181282F44
:102C400030E081E090E0022E02C0880F991F0A94C4
:102C5000E2F7842B8C935CC1A4E3B0E0E4E3F0E002
:102C60008081482FEA81FB818181282F30E081E03B
:102C700090E002C0880F991F2A95E2F7809584237F
:102C80008C93A5E3B0E0E5E3F0E08081482FEA8192
:102C9000FB818181282F30E081E090E0022E02C08C
:102CA000880F991F0A94E2F7809584238C9330C192
:102CB000A4E3B0E0E4E3F0E08081482FEA81FB8107
:102CC0008181282F30E081E090E002C0880F991FB9
:102CD0002A95E2F7842B8C93A5E3B0E0E5E3F0E0DE
:102CE0008081482FEA81FB818181282F30E081E0BB
:102CF00090E0022E02C0880F991F0A94E2F7842BFD
:102D00008C9306C1A4E3B0E0E4E3F0E08081482FB7
:102D1000EA81FB818181282F30E081E090E002C0D0
:102D2000880F991F2A95E2F7842B8C93A5E3B0E0D6
:102D3000E5E3F0E08081482FEA81FB818181282F43
:102D400030E081E090E0022E02C0880F991F0A94C3
:102D5000E2F7809584238C93DBC083E08983D8C01D
:102D6000EA81FB818281282F30E03D832C838C8196
:102D70009D818130910509F442C02C813D81223032
:102D800031052CF48C819D81009771F0B9C02C81A4
:102D90003D812230310509F45EC08C819D818330F4
:102DA000910509F482C0ACC0A1E3B0E0E1E3F0E03A
:102DB0008081482FEA81FB818181282F30E081E0EA
:102DC00090E002C0880F991F2A95E2F7809584232E
:102DD0008C93A2E3B0E0E2E3F0E08081482FEA8147
:102DE000FB818181282F30E081E090E0022E02C03B
:102DF000880F991F0A94E2F7842B8C9389C0A1E372
:102E0000B0E0E1E3F0E08081482FEA81FB8181813D
:102E1000282F30E081E090E002C0880F991F2A95AA
:102E2000E2F7809584238C93A2E3B0E0E2E3F0E044
:102E30008081482FEA81FB818181282F30E081E069
:102E400090E0022E02C0880F991F0A94E2F7809545
:102E500084238C935DC0A1E3B0E0E1E3F0E08081E6
:102E6000482FEA81FB818181282F30E081E090E0CA
:102E700002C0880F991F2A95E2F7842B8C93A2E356
:102E8000B0E0E2E3F0E08081482FEA81FB818181BC
:102E9000282F30E081E090E0022E02C0880F991FB9
:102EA0000A94E2F7842B8C9333C0A1E3B0E0E1E312
:102EB000F0E08081482FEA81FB818181282F30E07A
:102EC00081E090E002C0880F991F2A95E2F7842BD9
:102ED0008C93A2E3B0E0E2E3F0E08081482FEA8146
:102EE000FB818181282F30E081E090E0022E02C03A
:102EF000880F991F0A94E2F7809584238C9308C069
:102F000083E0898305C082E0898302C081E08983F0
:102F100089812D960FB6F894DEBF0FBECDBFCF913D
:102F2000DF910895DF93CF93CDB7DEB72E970FB61D
:102F3000F894DEBF0FBECDBF8A836B834C8381E0E4
:102F400089838A81843018F082E089830DC28B8165
:102F5000883018F083E0898307C28C81833018F0B1
:102F600084E0898301C28A81282F30E03E872D8743
:102F70008D859E858130910509F48FC02D853E8514
:102F8000223031052CF48D859E85009771F0ECC1BF
:102F90002D853E852230310509F4F7C08D859E854B
:102FA0008330910509F469C1DFC18C81282F30E09D
:102FB0003C872B878B859C8581309105F9F02B858B
:102FC0003C852230310509F440C08B859C850097F3
:102FD00009F0CAC1AAE3B0E0EAE3F0E08081482F3B
:102FE0008B81282F30E081E090E0022E02C0880F14
:102FF000991F0A94E2F7842B8C93B6C1AAE3B0E040
:10300000EAE3F0E08081482F8B81282F30E081E0D7
:1030100090E002C0880F991F2A95E2F780958423DB
:103020008C93ABE3B0E0EBE3F0E08081482F8B8141
:10303000282F30E081E090E0022E02C0880F991F17
:103040000A94E2F7842B8C938FC1AAE3B0E0EAE301
:10305000F0E08081482F8B81282F30E081E090E0E4
:1030600002C0880F991F2A95E2F7809584238C93DC
:10307000ABE3B0E0EBE3F0E08081482F8B81282FB9
:1030800030E081E090E0022E02C0880F991F0A9480
:10309000E2F7809584238C9367C18C81282F30E0E0
:1030A0003A87298789859A8581309105F9F02985A4
:1030B0003A852230310509F440C089859A85009708
:1030C00009F052C1A7E3B0E0E7E3F0E08081482FC8
:1030D0008B81282F30E081E090E0022E02C0880F23
:1030E000991F0A94E2F7842B8C933EC1A7E3B0E0CA
:1030F000E7E3F0E08081482F8B81282F30E081E0EA
:1031000090E002C0880F991F2A95E2F780958423EA
:103110008C93A8E3B0E0E8E3F0E08081482F8B8156
:10312000282F30E081E090E0022E02C0880F991F26
:103130000A94E2F7842B8C9317C1A7E3B0E0E7E38E
:10314000F0E08081482F8B81282F30E081E090E0F3
:1031500002C0880F991F2A95E2F7809584238C93EB
:10316000A8E3B0E0E8E3F0E08081482F8B81282FCE
:1031700030E081E090E0022E02C0880F991F0A948F
:10318000E2F7809584238C93EFC08C81282F30E068
:1031900038872F838F81988581309105F9F02F81B1
:1031A00038852230310509F440C08F819885009719
:1031B00009F0DAC0A4E3B0E0E4E3F0E08081482F56
:1031C0008B81282F30E081E090E0022E02C0880F32
:1031D000991F0A94E2F7842B8C93C6C0A4E3B0E055
:1031E000E4E3F0E08081482F8B81282F30E081E0FC
:1031F00090E002C0880F991F2A95E2F780958423FA
:103200008C93A5E3B0E0E5E3F0E08081482F8B816B
:10321000282F30E081E090E0022E02C0880F991F35
:103220000A94E2F7842B8C939FC0A4E3B0E0E4E31C
:10323000F0E08081482F8B81282F30E081E090E002
:1032400002C0880F991F2A95E2F7809584238C93FA
:10325000A5E3B0E0E5E3F0E08081482F8B81282FE3
:1032600030E081E090E0022E02C0880F991F0A949E
:10327000E2F7809584238C9377C08C81282F30E0EF
:103280003E832D838D819E8181309105F9F02D81C2
:103290003E812230310509F440C08D819E81009726
:1032A00009F062C0A1E3B0E0E1E3F0E08081482FE3
:1032B0008B81282F30E081E090E0022E02C0880F41
:1032C000991F0A94E2F7842B8C934EC0A1E3B0E0DF
:1032D000E1E3F0E08081482F8B81282F30E081E00E
:1032E00090E002C0880F991F2A95E2F78095842309
:1032F0008C93A2E3B0E0E2E3F0E08081482F8B8181
:10330000282F30E081E090E0022E02C0880F991F44
:103310000A94E2F7842B8C9327C0A1E3B0E0E1E3A9
:10332000F0E08081482F8B81282F30E081E090E011
:1033300002C0880F991F2A95E2F7809584238C9309
:10334000A2E3B0E0E2E3F0E08081482F8B81282FF8
:1033500030E081E090E0022E02C0880F991F0A94AD
:10336000E2F7809584238C9389812E960FB6F8948A
:10337000DEBF0FBECDBFCF91DF910895DF93CF9316
:10338000CDB7DEB72D970FB6F894DEBF0FBECDBF19
:103390008A836B8381E089838A81843018F082E09C
:1033A0008983C6C08B81833018F084E08983C0C0D4
:1033B00019828A81282F30E03D872C878C859D8556
:1033C0008130910509F43FC02C853D8522303105BF
:1033D0002CF48C859D85009771F0AAC02C853D85C5
:1033E0002230310509F457C08C859D8583309105C5
:1033F00009F478C09DC08B81282F30E03B872A8755
:103400008A859B858130910579F02A853B8522301C
:10341000310591F08A859B85009709F089C0EAE320
:10342000F0E08FEF808384C0EAE3F0E01082EBE30A
:10343000F0E08FEF80837CC0EAE3F0E01082EBE302
:10344000F0E0108275C08B81282F30E03987288703
:10345000888599858130910579F0288539852230D4
:10346000310591F088859985009709F061C0E7E3FF
:10347000F0E08FEF80835CC0E7E3F0E01082E8E3E8
:10348000F0E08FEF808354C0E7E3F0E01082E8E3E0
:10349000F0E010824DC08B81282F30E03F832E83D7
:1034A0008E819F818130910571F02E813F81223084
:1034B000310589F08E819F810097D1F5E4E3F0E03A
:1034C0008FEF808335C0E4E3F0E01082E5E3F0E0C5
:1034D0008FEF80832DC0E4E3F0E01082E5E3F0E0BD
:1034E000108226C08B81282F30E03D832C838C8175
:1034F0009D818130910571F02C813D812230310513
:1035000089F08C819D81009799F4E1E3F0E08FEFE1
:1035100080830EC0E1E3F0E01082E2E3F0E08FEFA1
:10352000808306C0E1E3F0E01082E2E3F0E0108285
:1035300089812D960FB6F894DEBF0FBECDBFCF9117
:10354000DF910895DF93CF93CDB7DEB72E970FB6F7
:10355000F894DEBF0FBECDBF8A836B834C8381E0BE
:1035600089838A81843018F082E089830DC18B8140
:10357000883018F083E0898307C18C81823018F08D
:1035800086E0898301C119828A81282F30E03E8735
:103590002D878D859E858130910509F44FC02D853D
:1035A0003E85223031052CF48D859E85009771F083
:1035B000EBC02D853E852230310509F477C08D851D
:1035C0009E858330910509F4A9C0DEC08C81282F27
:1035D00030E03C872B878B859C850097D1F02B852D
:1035E0003C852130310509F0CFC0ABE3B0E0EBE31F
:1035F000F0E08081482F8B81282F30E081E090E03F
:10360000022E02C0880F991F0A94E2F7842B8C9334
:10361000BBC0ABE3B0E0EBE3F0E08081482F8B81EF
:10362000282F30E081E090E0022E02C0880F991F21
:103630000A94E2F7809584238C93A6C08C81282F6E
:1036400030E03A87298789859A850097D1F02985C6
:103650003A852130310509F097C0A8E3B0E0E8E3EE
:10366000F0E08081482F8B81282F30E081E090E0CE
:10367000022E02C0880F991F0A94E2F7842B8C93C4
:1036800083C0A8E3B0E0E8E3F0E08081482F8B81BD
:10369000282F30E081E090E0022E02C0880F991FB1
:1036A0000A94E2F7809584238C936EC08C81282F36
:1036B00030E038872F838F8198850097D1F02F8154
:1036C00038852130310509F05FC0A5E3B0E0E5E3BE
:1036D000F0E08081482F8B81282F30E081E090E05E
:1036E000022E02C0880F991F0A94E2F7842B8C9354
:1036F0004BC0A5E3B0E0E5E3F0E08081482F8B818B
:10370000282F30E081E090E0022E02C0880F991F40
:103710000A94E2F7809584238C9336C08C81282FFD
:1037200030E03E832D838D819E810097C9F02D81ED
:103730003E812130310541F5A2E3B0E0E2E3F0E063
:103740008081482F8B81282F30E081E090E0022E8D
:1037500002C0880F991F0A94E2F7842B8C9314C03F
:10376000A2E3B0E0E2E3F0E08081482F8B81282FD4
:1037700030E081E090E0022E02C0880F991F0A9489
:10378000E2F7809584238C9389812E960FB6F89466
:10379000DEBF0FBECDBFCF91DF910895DF93CF93F2
:1037A00000D000D00F92CDB7DEB78A836B8381E063
:1037B00089838A81843018F082E0898333C019823A
:1037C0008A81282F30E03D832C838C819D8181303C
:1037D0009105D1F02C813D81223031052CF48C8172
:1037E0009D81009761F01EC02C813D812230310502
:1037F00081F08C819D818330910581F013C0EBE3D2
:10380000F0E08B8180830EC0E8E3F0E08B81808361
:1038100009C0E5E3F0E08B81808304C0E2E3F0E0DF
:103820008B81808389810F900F900F900F900F9064
:10383000CF91DF910895DF93CF93CDB7DEB7279770
:103840000FB6F894DEBF0FBECDBF8A836B835D8356
:103850004C8381E089838A81843018F082E08983F7
:103860007EC08B81883018F083E0898378C08C819A
:103870009D81009719F485E0898371C019828A813E
:10388000282F30E03F832E834E815F8141305105E8
:1038900059F18E819F818230910534F42E813F81D0
:1038A0002115310569F05BC04E815F8142305105C1
:1038B00079F18E819F818330910509F43DC04FC01D
:1038C000E9E3F0E08081282F30E08B81882F90E0C1
:1038D000A90102C0559547958A95E2F7CA01817002
:1038E000EC81FD8180833BC0E6E3F0E08081282FFE
:1038F00030E08B81882F90E0A90102C05595479553
:103900008A95E2F7CA018170EC81FD81808327C02E
:10391000E3E3F0E08081282F30E08B81882F90E076
:10392000A90102C0559547958A95E2F7CA018170B1
:10393000EC81FD81808313C0E0E3F0E08081282FDB
:1039400030E08B81882F90E0A90102C05595479502
:103950008A95E2F7CA018170EC81FD8180838981BB
:1039600027960FB6F894DEBF0FBECDBFCF91DF9183
:103970000895DF93CF9300D000D00F92CDB7DEB77C
:103980008D831C821B829E012D5F3F4F8D81B9016B
:103990000E94C6128B819C81CC01A0E0B0E028E897
:1039A00033E140E050E0BC01CD010E94BA30DC01BF
:1039B000CB0120E030E941E050E0BC01CD010E94A4
:1039C0000031DA01C9019A83898389819A810F9034
:1039D0000F900F900F900F90CF91DF910895DF938C
:1039E000CF9300D000D00F92CDB7DEB78D831C826D
:1039F0001B828D81882F90E09E012D5F3F4FB90182
:103A00000E94C6128B819C81CC01A0E0B0E028E826
:103A100033E140E050E0BC01CD010E94BA30DC014E
:103A2000CB01072E7AE0B695A795979587957A955D
:103A3000D1F7702D9A83898389819A810F900F9095
:103A40000F900F900F90CF91DF910895DF93CF9358
:103A500000D000D0CDB7DEB71982809119028A83D9
:103A600080911A028B8383E08C83CE0102960E94A0
:103A70000014898380911B028A8380911C028B83AE
:103A800083E08C83CE0102960E940014898380918A
:103A90001D028A8380911E028B8383E08C83CE017A
:103AA00002960E940014898380911F028A8380916C
:103AB00020028B8383E08C83CE0102960E94001447
:103AC0008983809121028A83809122028B8383E003
:103AD0008C83CE0102960E94001489838091230278
:103AE0008A83809124028B8383E08C83CE010296AB
:103AF0000E9400148983809125028A838091260286
:103B00008B8383E08C83CE0102960E94001489830C
:103B1000809127028A83809128028B8383E08C83A3
:103B2000CE0102960E940014898380912D028A831F
:103B300080912E028B8383E08C83CE0102960E94BB
:103B400000148983809129028A8380912A028B83C1
:103B500083E08C83CE0102960E94001489838091B9
:103B60002B028A8380912C028B8383E08C83CE018D
:103B700002960E940014898389810F900F900F9004
:103B80000F90CF91DF910895DF93CF93CDB7DEB73C
:103B9000C754D0400FB6F894DEBF0FBECDBFFE01B4
:103BA000ED5BFF4F80838091290290912A02692F5B
:103BB00040E00E94A21A80912B0290912C02692F62
:103BC00040E00E94A21AFE01EF5BFF4F84E090E00C
:103BD0009183808371C0FE01ED5BFF4F8081882F50
:103BE00090E0FE01EF5BFF4F008002C09595879546
:103BF0000A94E2F78170FE01E05CFF4F8083FE01D2
:103C0000EF5BFF4F8081918126969FAF8EAF269705
:103C100026968EAD9FAD26978530910529F1269683
:103C20008EAD9FAD26978630910544F426968EADD5
:103C30009FAD26978430910581F02AC026968EADDF
:103C40009FAD269786309105B1F026968EAD9FAD3B
:103C5000269787309105B1F01BC0809121028FAF6C
:103C6000809122028EAF14C0809123028FAF809189
:103C700024028EAF0DC0809125028FAF8091260265
:103C80008EAF06C0809127028FAF809128028EAF41
:103C90008FAD6EADFE01E05CFF4F40810E94A21A25
:103CA000DE01AF5BBF4FFE01EF5BFF4F8081918173
:103CB000019611969C938E93FE01EF5BFF4F8081DE
:103CC0009181883091050CF486CF80912D029091DE
:103CD0002E02692F41E00E94A21A80E090E0A0E04D
:103CE000B0E48DAB9EABAFABB8AF6DA97EA98FA989
:103CF00098AD20E030E04AEF54E40E94040FDC016C
:103D0000CB0189AB9AABABABBCAB69A97AA98BA948
:103D10009CA920E030E040E85FE30E945E10882329
:103D20002CF481E090E098AB8FA73FC069A97AA9F5
:103D30008BA99CA920E03FEF4FE757E40E94FE0FBC
:103D400018164CF56DA97EA98FA998AD20E030E03A
:103D500040E251E40E94040FDC01CB01BC01CD0123
:103D60000E944900DC01CB0198AB8FA70FC088EC03
:103D700090E09EA78DA78DA59EA50197F1F79EA720
:103D80008DA78FA598A9019798AB8FA78FA598A904
:103D9000009769F714C069A97AA98BA99CA90E9408
:103DA0004900DC01CB0198AB8FA78FA598A99CA7F0
:103DB0008BA78BA59CA50197F1F79CA78BA780915A
:103DC0002D0290912E02692F40E00E94A21A80E0FD
:103DD00090E0A0E0B0E48FA398A7A9A7BAA76FA12D
:103DE00078A589A59AA520E030E04AEF54E40E9426
:103DF000040FDC01CB018BA39CA3ADA3BEA36BA1DD
:103E00007CA18DA19EA120E030E040E85FE30E940C
:103E10005E1088232CF481E090E09AA389A33FC030
:103E20006BA17CA18DA19EA120E03FEF4FE757E45D
:103E30000E94FE0F18164CF56FA178A589A59AA5CA
:103E400020E030E040E251E40E94040FDC01CB01AD
:103E5000BC01CD010E944900DC01CB019AA389A3DA
:103E60000FC088EC90E098A38F8F8F8D98A1019759
:103E7000F1F798A38F8F89A19AA101979AA389A39B
:103E800089A19AA1009769F714C06BA17CA18DA1AB
:103E90009EA10E944900DC01CB019AA389A389A1BC
:103EA0009AA19E8F8D8F8D8D9E8D0197F1F79E8F9C
:103EB0008D8F1DAE1CAE5DC0FE01ED5BFF4F80819E
:103EC000882F90E00CAC02C0959587950A94E2F794
:103ED00081708BAF8CAD9DAD28969FAF8EAF28972C
:103EE00028968EAD9FAD28978130910521F12896B7
:103EF0008EAD9FAD2897823091053CF428968EAD0B
:103F00009FAD2897009781F02AC028968EAD9FAD6F
:103F1000289782309105B1F028968EAD9FAD2897F5
:103F200083309105B1F01BC0809121028AAF80914E
:103F3000220289AF14C0809123028AAF80912402AB
:103F400089AF0DC0809125028AAF8091260289AF8A
:103F500006C0809127028AAF8091280289AF8AAD7E
:103F600069AD4BAD0E94A21A8CAD9DAD01969DAF7F
:103F70008CAF8CAD9DAD843091050CF49DCF8091BC
:103F80002D0290912E02692F41E00E94A21A80E03A
:103F900090E0A0E0B0E4898F9A8FAB8FBC8F698DE1
:103FA0007A8D8B8D9C8D20E030E04AEF54E40E94A6
:103FB000040FDC01CB018D8B9E8BAF8BB88F6D898D
:103FC0007E898F89988D20E030E040E85FE30E9491
:103FD0005E1088232CF481E090E09C8B8B8B3FC09B
:103FE0006D897E898F89988D20E03FEF4FE757E4F8
:103FF0000E94FE0F18164CF5698D7A8D8B8D9C8D65
:1040000020E030E040E251E40E94040FDC01CB01EB
:10401000BC01CD010E944900DC01CB019C8B8B8B44
:104020000FC088EC90E09A8B898B89899A890197D7
:10403000F1F79A8B898B8B899C8901979C8B8B8B51
:104040008B899C89009769F714C06D897E898F8957
:10405000988D0E944900DC01CB019C8B8B8B8B8956
:104060009C89988B8F878F8598890197F1F7988B1A
:104070008F8780912D0290912E02692F40E00E943F
:10408000A21A80E090E0A0E0B0E48B879C87AD8727
:10409000BE876B857C858D859E8520E030E04AEF6C
:1040A00054E40E94040FDC01CB018F839887A98719
:1040B000BA876F81788589859A8520E030E040E86D
:1040C0005FE30E945E1088232CF481E090E09E83E1
:1040D0008D833FC06F81788589859A8520E03FEF89
:1040E0004FE757E40E94FE0F18164CF56B857C8550
:1040F0008D859E8520E030E040E251E40E94040F6F
:10410000DC01CB01BC01CD010E944900DC01CB01E7
:104110009E838D830FC088EC90E09C838B838B8182
:104120009C810197F1F79C838B838D819E81019700
:104130009E838D838D819E81009769F714C06F8166
:10414000788589859A850E944900DC01CB019E8390
:104150008D838D819E819A83898389819A8101973C
:10416000F1F79A838983C95BDF4F0FB6F894DEBFFE
:104170000FBECDBFCF91DF910895DF93CF93CDB721
:10418000DEB7C754D0400FB6F894DEBF0FBECDBF28
:10419000FE01ED5BFF4F80838091290290912A02FE
:1041A000692F41E00E94A21A80912B0290912C026B
:1041B000692F40E00E94A21AFE01EF5BFF4F84E0EE
:1041C00090E09183808371C0FE01ED5BFF4F8081A1
:1041D000882F90E0FE01EF5BFF4F008002C09595B5
:1041E00087950A94E2F78170FE01E05CFF4F8083BF
:1041F000FE01EF5BFF4F8081918126969FAF8EAFCE
:10420000269726968EAD9FAD26978530910529F18C
:1042100026968EAD9FAD26978630910544F426965E
:104220008EAD9FAD26978430910581F02AC02696E9
:104230008EAD9FAD269786309105B1F026968EAD56
:104240009FAD269787309105B1F01BC08091210268
:104250008FAF809122028EAF14C0809123028FAF66
:10426000809124028EAF0DC0809125028FAF809186
:1042700026028EAF06C0809127028FAF8091280260
:104280008EAF8FAD6EADFE01E05CFF4F40810E94AE
:10429000A21ADE01AF5BBF4FFE01EF5BFF4F8081D3
:1042A0009181019611969C938E93FE01EF5BFF4FD7
:1042B00080819181883091050CF486CF80912D0208
:1042C00090912E02692F41E00E94A21A80E090E0B6
:1042D000A0E0B0E48DAB9EABAFABB8AF6DA97EA94B
:1042E0008FA998AD20E030E04AEF54E40E94040F1B
:1042F000DC01CB0189AB9AABABABBCAB69A97AA9AA
:104300008BA99CA920E030E040E85FE30E945E10AA
:1043100088232CF481E090E098AB8FA73FC069A977
:104320007AA98BA99CA920E03FEF4FE757E40E94B0
:10433000FE0F18164CF56DA97EA98FA998AD20E047
:1043400030E040E251E40E94040FDC01CB01BC01EB
:10435000CD010E944900DC01CB0198AB8FA70FC0B3
:1043600088EC90E09EA78DA78DA59EA50197F1F7FB
:104370009EA78DA78FA598A9019798AB8FA78FA50A
:1043800098A9009769F714C069A97AA98BA99CA973
:104390000E944900DC01CB0198AB8FA78FA598A99B
:1043A0009CA78BA78BA59CA50197F1F79CA78BA732
:1043B00080912D0290912E02692F40E00E94A21A56
:1043C00080E090E0A0E0B0E48FA398A7A9A7BAA7E7
:1043D0006FA178A589A59AA520E030E04AEF54E4C2
:1043E0000E94040FDC01CB018BA39CA3ADA3BEA351
:1043F0006BA17CA18DA19EA120E030E040E85FE3AD
:104400000E945E1088232CF481E090E09AA389A397
:104410003FC06BA17CA18DA19EA120E03FEF4FE7A3
:1044200057E40E94FE0F18164CF56FA178A589A5D8
:104430009AA520E030E040E251E40E94040FDC0144
:10444000CB01BC01CD010E944900DC01CB019AA344
:1044500089A30FC088EC90E098A38F8F8F8D98A1CF
:104460000197F1F798A38F8F89A19AA101979AA339
:1044700089A389A19AA1009769F714C06BA17CA1B7
:104480008DA19EA10E944900DC01CB019AA389A3C2
:1044900089A19AA19E8F8D8F8D8D9E8D0197F1F7A9
:1044A0009E8F8D8F1DAE1CAE5DC0FE01ED5BFF4F7C
:1044B0008081882F90E00CAC02C0959587950A9476
:1044C000E2F781708BAF8CAD9DAD28969FAF8EAF1C
:1044D000289728968EAD9FAD28978130910521F1C0
:1044E00028968EAD9FAD2897823091053CF4289692
:1044F0008EAD9FAD2897009781F02AC028968EAD8B
:104500009FAD289782309105B1F028968EAD9FAD72
:10451000289783309105B1F01BC0809121028AAFAA
:104520008091220289AF14C0809123028AAF8091CA
:10453000240289AF0DC0809125028AAF80912602A6
:1045400089AF06C0809127028AAF8091280289AF87
:104550008AAD69AD4BAD0E94A21A8CAD9DAD01969E
:104560009DAF8CAF8CAD9DAD843091050CF49DCF8B
:1045700080912D0290912E02692F41E00E94A21A93
:1045800080E090E0A0E0B0E4898F9A8FAB8FBC8F81
:10459000698D7A8D8B8D9C8D20E030E04AEF54E45C
:1045A0000E94040FDC01CB018D8B9E8BAF8BB88FEB
:1045B0006D897E898F89988D20E030E040E85FE347
:1045C0000E945E1088232CF481E090E09C8B8B8B02
:1045D0003FC06D897E898F89988D20E03FEF4FE73E
:1045E00057E40E94FE0F18164CF5698D7A8D8B8D5D
:1045F0009C8D20E030E040E251E40E94040FDC0199
:10460000CB01BC01CD010E944900DC01CB019C8B98
:104610008B8B0FC088EC90E09A8B898B89899A8963
:104620000197F1F79A8B898B8B899C8901979C8BD9
:104630008B8B8B899C89009769F714C06D897E8963
:104640008F89988D0E944900DC01CB019C8B8B8B5C
:104650008B899C89988B8F878F8598890197F1F733
:10466000988B8F8780912D0290912E02692F40E0C8
:104670000E94A21A80E090E0A0E0B0E48B879C87C3
:10468000AD87BE876B857C858D859E8520E030E07B
:104690004AEF54E40E94040FDC01CB018F8398871A
:1046A000A987BA876F81788589859A8520E030E06F
:1046B00040E85FE30E945E1088232CF481E090E0E4
:1046C0009E838D833FC06F81788589859A8520E0A0
:1046D0003FEF4FE757E40E94FE0F18164CF56B852D
:1046E0007C858D859E8520E030E040E251E40E948B
:1046F000040FDC01CB01BC01CD010E944900DC01AB
:10470000CB019E838D830FC088EC90E09C838B83CC
:104710008B819C810197F1F79C838B838D819E8196
:1047200001979E838D838D819E81009769F714C0C8
:104730006F81788589859A850E944900DC01CB01CB
:104740009E838D838D819E819A83898389819A81BD
:104750000197F1F79A838983C95BDF4F0FB6F8940D
:10476000DEBF0FBECDBFCF91DF9108950F931F9392
:10477000DF93CF93CDB7DEB7C654D0400FB6F894D1
:10478000DEBF0FBECDBF82E00E94C41DFE01ED5B07
:10479000FF4F80E090E0A0E0B0E480839183A283AB
:1047A000B3838E01015C1F4FFE01ED5BFF4F608103
:1047B00071818281938120E030E04AEF54E40E94CD
:1047C000040FDC01CB01F80180839183A283B383C2
:1047D000FE01FF96608171818281938120E030E04B
:1047E00040E85FE30E945E1088232CF481E090E0B3
:1047F0009EAF8DAF46C0FE01FF96608171818281C0
:10480000938120E03FEF4FE757E40E94FE0F181618
:1048100064F5FE01ED5BFF4F6081718182819381C0
:1048200020E030E040E251E40E94040FDC01CB01C3
:10483000BC01CD010E944900DC01CB019EAF8DAFD0
:104840000FC088EC90E09CAF8BAF8BAD9CAD019717
:10485000F1F79CAF8BAF8DAD9EAD01979EAF8DAF45
:104860008DAD9EAD009769F716C0FE01FF96608181
:104870007181828193810E944900DC01CB019EAF4E
:104880008DAF8DAD9EAD9AAF89AF89AD9AAD0197D1
:10489000F1F79AAF89AF88E00E94C41D80E090E0F4
:1048A000A0E0B0E48DAB9EABAFABB8AF6DA97EA975
:1048B0008FA998AD20E030E04AEF54E40E94040F45
:1048C000DC01CB0189AB9AABABABBCAB69A97AA9D4
:1048D0008BA99CA920E030E040E85FE30E945E10D5
:1048E00088232CF481E090E098AB8FA73FC069A9A2
:1048F0007AA98BA99CA920E03FEF4FE757E40E94DB
:10490000FE0F18164CF56DA97EA98FA998AD20E071
:1049100030E040E251E40E94040FDC01CB01BC0115
:10492000CD010E944900DC01CB0198AB8FA70FC0DD
:1049300088EC90E09EA78DA78DA59EA50197F1F725
:104940009EA78DA78FA598A9019798AB8FA78FA534
:1049500098A9009769F714C069A97AA98BA99CA99D
:104960000E944900DC01CB0198AB8FA78FA598A9C5
:104970009CA78BA78BA59CA50197F1F79CA78BA75C
:104980008CE00E94C41D80E090E0A0E0B0E48FA322
:1049900098A7A9A7BAA76FA178A589A59AA520E08D
:1049A00030E04AEF54E40E94040FDC01CB018BA3FA
:1049B0009CA3ADA3BEA36BA17CA18DA19EA120E071
:1049C00030E040E85FE30E945E1088232CF481E031
:1049D00090E09AA389A33FC06BA17CA18DA19EA169
:1049E00020E03FEF4FE757E40E94FE0F18164CF50A
:1049F0006FA178A589A59AA520E030E040E251E4B6
:104A00000E94040FDC01CB01BC01CD010E944900D2
:104A1000DC01CB019AA389A30FC088EC90E098A396
:104A20008F8F8F8D98A10197F1F798A38F8F89A110
:104A30009AA101979AA389A389A19AA1009769F7DE
:104A400014C06BA17CA18DA19EA10E944900DC0134
:104A5000CB019AA389A389A19AA19E8F8D8F8D8D59
:104A60009E8D0197F1F79E8F8D8F81E00E94C41D6E
:104A700080E090E0A0E0B0E4898F9A8FAB8FBC8F8C
:104A8000698D7A8D8B8D9C8D20E030E04AEF54E467
:104A90000E94040FDC01CB018D8B9E8BAF8BB88FF6
:104AA0006D897E898F89988D20E030E040E85FE352
:104AB0000E945E1088232CF481E090E09C8B8B8B0D
:104AC0003FC06D897E898F89988D20E03FEF4FE749
:104AD00057E40E94FE0F18164CF5698D7A8D8B8D68
:104AE0009C8D20E030E040E251E40E94040FDC01A4
:104AF000CB01BC01CD010E944900DC01CB019C8BA4
:104B00008B8B0FC088EC90E09A8B898B89899A896E
:104B10000197F1F79A8B898B8B899C8901979C8BE4
:104B20008B8B8B899C89009769F714C06D897E896E
:104B30008F89988D0E944900DC01CB019C8B8B8B67
:104B40008B899C89988B8F878F8598890197F1F73E
:104B5000988B8F8782E00E94C41D80E090E0A0E0E7
:104B6000B0E48B879C87AD87BE876B857C858D8500
:104B70009E8520E030E04AEF54E40E94040FDC01FF
:104B8000CB018F839887A987BA876F8178858985BC
:104B90009A8520E030E040E85FE30E945E108823C1
:104BA0002CF481E090E09E838D833FC06F817885F7
:104BB00089859A8520E03FEF4FE757E40E94FE0F7A
:104BC00018164CF56B857C858D859E8520E030E040
:104BD00040E251E40E94040FDC01CB01BC01CD0195
:104BE0000E944900DC01CB019E838D830FC088ECBD
:104BF00090E09C838B838B819C810197F1F79C8350
:104C00008B838D819E8101979E838D838D819E8173
:104C1000009769F714C06F81788589859A850E940D
:104C20004900DC01CB019E838D838D819E819A8317
:104C3000898389819A810197F1F79A838983CA5B75
:104C4000DF4F0FB6F894DEBF0FBECDBFCF91DF911F
:104C50001F910F910895DF93CF9300D000D0CDB76F
:104C6000DEB78B836C831A8219828B81823018F0B5
:104C700082E08A8313C08C81803118F083E08A83BC
:104C80000DC08B81882319F48C81898303C08C81AA
:104C9000805C8983898180580E94C41D8A810F901D
:104CA0000F900F900F90CF91DF910895DF93CF93E6
:104CB00000D000D00F92CDB7DEB79B838A836C8380
:104CC0004D8319828C816D810E942B260EC08981B3
:104CD000282F30E08A819B81FC01E20FF31F808145
:104CE0000E94BD2089818F5F89838981282F30E0D0
:104CF0008A819B81FC01E20FF31F8081882339F7B1
:104D00000F900F900F900F900F90CF91DF9108951B
:104D1000AF92BF92CF92DF92EF92FF920F931F93C9
:104D2000DF93CF93CDB7DEB7A0970FB6F894DEBF71
:104D30000FBECDBF298F3A8F4B8F5C8F6D8F7E8FCB
:104D40008F8F98A31C821B821A8284E1FE01359604
:104D5000DF01982F1D929A95E9F719826AC0A98CF4
:104D6000BA8CCB8CDC8CED8CFE8C0F8D18A12A2D8F
:104D70003B2D4C2D5D2D6E2D7F2D802F912F0F2ED5
:104D8000FAE0AF2EF02DBB24CC24DD24EE24FF244A
:104D900000E010E00E94EA06A22EB32EC42ED52E0B
:104DA000E62EF72E082F192F2A2D3B2D4C2D5D2D89
:104DB0006E2D7F2D802F912F2C838B81282F30E01B
:104DC0008C81482F405DCE010596FC01E20FF31F58
:104DD0004083A98CBA8CCB8CDC8CED8CFE8C0F8D37
:104DE00018A12A2D3B2D4C2D5D2D6E2D7F2D802F52
:104DF000912F0F2EFAE0AF2EF02DBB24CC24DD2412
:104E0000EE24FF2400E010E00E947500A22EB32ED5
:104E1000C42ED52EE62EF72E082F192FA98EBA8E66
:104E2000CB8EDC8EED8EFE8E0F8F18A38B818F5F65
:104E30008B83898D9A8D892B9B8D892B9C8D892BBA
:104E40009D8D892B9E8D892B9F8D892B98A1892BD8
:104E5000882309F084CF8B818131E0F181E060E02B
:104E60000E942B268B8180518A8311C08A81882FD2
:104E700090E09C0121503040CE010596FC01E20FEC
:104E8000F31F80810E94BD208A8181508A838A819C
:104E9000882361F780E060E00E942B268B818A8363
:104EA00011C08A81882F90E09C0121503040CE01B2
:104EB0000596FC01E20FF31F80810E94BD208A81CC
:104EC00081508A838A81882361F781E060E00E94B3
:104ED0002B2617C08B818A8311C08A81882F90E08E
:104EE0009C0121503040CE010596FC01E20FF31FDA
:104EF00080810E94BD208A8181508A838A81882393
:104F000061F78981A0960FB6F894DEBF0FBECDBFC2
:104F1000CF91DF911F910F91FF90EF90DF90CF9095
:104F2000BF90AF900895DF93CF93CDB7DEB72897AA
:104F30000FB6F894DEBF0FBECDBF9D838C836E830A
:104F40004F8328871B821A828E81883018F081E077
:104F50008B8334C08F81823018F082E08B832EC027
:104F60008885803118F083E08B8328C08E81882F5C
:104F700090E0880F991F880F991F880F991F8A83C7
:104F80008A81805C0E94C41D19820EC08981282FED
:104F900030E08C819D81FC01E20FF31F80810E9433
:104FA000BD2089818F5F89838981883078F38F81E3
:104FB00068850E942B268E810E94BD208B812896B9
:104FC0000FB6F894DEBF0FBECDBFCF91DF9108952D
:104FD000DF93CF93CDB7DEB781E00E94C41DCF91A0
:104FE000DF910895DF93CF93CDB7DEB72D970FB63E
:104FF000F894DEBF0FBECDBF9D878C878C859D85C5
:105000009C838B831A821DC08A81E82FF0E08B81FC
:105010009C812AE030E0B9010E94D930282FCE01CE
:105020000596E80FF91F20838B819C812AE030E0F0
:10503000B9010E94D930CB019C838B838A818F5F19
:105040008A838B819C810097F9F68A8181508983BC
:1050500011C08981282F332727FD3095CE01059671
:10506000FC01E20FF31F8081805D0E94BD208981D9
:10507000815089838981882364F72D960FB6F8942F
:10508000DEBF0FBECDBFCF91DF910895DF93CF93E9
:1050900000D000D000D0CDB7DEB71B821A821982B3
:1050A0001A82198261C029813A81C901880F991F2A
:1050B000820F931FFC01EF5CFD4F8081882371F00C
:1050C00029813A81C901880F991F820F931FFC0122
:1050D000EF5CFD4F8081813009F03FC029813A812A
:1050E000C901880F991F820F931FFC01E15DFD4FDD
:1050F00080818C8329813A81C901880F991F820F91
:10510000931FFC01E05DFD4F80818D8329813A81F1
:10511000C901880F991F820F931FFC01EF5CFD4F9F
:105120008081882311F41E820FC029813A81C90130
:10513000880F991F820F931FFC01EF5CFD4F808148
:10514000813011F482E08E83CE0104960E94001417
:10515000882329F081E08B8302C082E08B838981E0
:105160009A8101969A83898389819A8188309105F1
:105170000CF499CF8B8126960FB6F894DEBF0FBE44
:10518000CDBFCF91DF910895DF93CF93CDB7DEB739
:10519000A1970FB6F894DEBF0FBECDBF99A388A329
:1051A0001E8E1D8E1F8EE8A1F9A1108284E08E8FC5
:1051B0008FC18E8D282F30E0C901880F991F820F73
:1051C000931FFC01E15DFD4F40818E8D282F30E063
:1051D000C901880F991F820F931FFC01E05DFD4FED
:1051E0009081842F692F40E00E94A21A1D8E47C132
:1051F0008D8D282F30E0C901880F991F820F931FD2
:10520000FC01E15DFD4F40818D8D282F30E0C9010B
:10521000880F991F820F931FFC01E05DFD4F908165
:105220009E01215E3F4F842F692FA9010E941B1C04
:105230008F8D882309F020C18D8D482F50E08E8DF1
:10524000882F90E09C0124503040CA01880F991F9C
:10525000880F991F820F931FFC01EC59FD4F80812D
:10526000E8A1F9A1808380E090E0A0E2B1E4898F19
:105270009A8FAB8FBC8F698D7A8D8B8D9C8D20E042
:1052800030E04AEF54E40E94040FDC01CB018D8B27
:105290009E8BAF8BB88F6D897E898F89988D20E02A
:1052A00030E040E85FE30E945E1088232CF481E048
:1052B00090E09C8B8B8B3FC06D897E898F89988D08
:1052C00020E03FEF4FE757E40E94FE0F18164CF521
:1052D000698D7A8D8B8D9C8D20E030E040E251E429
:1052E0000E94040FDC01CB01BC01CD010E944900EA
:1052F000DC01CB019C8B8B8B0FC088EC90E09A8BF0
:10530000898B89899A890197F1F79A8B898B8B8987
:105310009C8901979C8B8B8B8B899C89009769F763
:1053200035C06D897E898F89988D0E944900DC0186
:10533000CB019C8B8B8B8B899C89988B8F878F85DE
:1053400098890197F1F7988B8F8720C08D8D282F32
:1053500030E0C901880F991F820F931FFC01E15DA6
:10536000FD4F40818D8D282F30E0C901880F991F96
:10537000820F931FFC01E05DFD4F90819E01215E35
:105380003F4F842F692FA9010E941B1C8F8D8823FA
:10539000E9F280E090E0A0E2B1E48B879C87AD87E2
:1053A000BE876B857C858D859E8520E030E04AEF49
:1053B00054E40E94040FDC01CB018F839887A987F6
:1053C000BA876F81788589859A8520E030E040E84A
:1053D0005FE30E945E1088232CF481E090E09E83BE
:1053E0008D833FC06F81788589859A8520E03FEF66
:1053F0004FE757E40E94FE0F18164CF56B857C852D
:105400008D859E8520E030E040E251E40E94040F4B
:10541000DC01CB01BC01CD010E944900DC01CB01C4
:105420009E838D830FC088EC90E09C838B838B815F
:105430009C810197F1F79C838B838D819E810197DD
:105440009E838D838D819E81009769F71CC06F813B
:10545000788589859A850E944900DC01CB019E836D
:105460008D838D819E819A83898389819A81019719
:10547000F1F79A83898307C08D8D8F5F8D8F8D8D16
:10548000843008F4B5CE8E8D282F30E0C901880F06
:10549000991F820F931FFC01E15DFD4F40818E8DAE
:1054A000282F30E0C901880F991F820F931FFC013C
:1054B000E05DFD4F9081842F692F41E00E94A21A88
:1054C000E8A1F9A18081882339F48E8D8F5F8E8FBA
:1054D0008E8D883008F46DCEA1960FB6F894DEBF9D
:1054E0000FBECDBFCF91DF910895AF92BF92CF9203
:1054F000DF92EF92FF920F931F93DF93CF93CDB77D
:10550000DEB7C154D0400FB6F894DEBF0FBECDBF9A
:105510001CAE1BAE1EAE1DAE1AAE19AE1FAE80E69F
:1055200090E060E040E00E945626CE01CB960E94BB
:10553000C4288BAD9CADC0979CAF8BAF2BAD3CAD61
:10554000C901990F880B982F5901C82ED82EE82E23
:10555000F82E082F182F2A2D3B2D4C2D5D2D6E2D4A
:105560007F2D802F912F0E94882680E090E0A6E179
:10557000B4E48DAB9EABAFABB8AF6DA97EA98FA9DC
:1055800098AD20E030E04AEF54E40E94040FDC01C3
:10559000CB0189AB9AABABABBCAB69A97AA98BA9A0
:1055A0009CA920E030E040E85FE30E945E10882381
:1055B0002CF481E090E098AB8FA73FC069A97AA94D
:1055C0008BA99CA920E03FEF4FE757E40E94FE0F14
:1055D00018164CF56DA97EA98FA998AD20E030E092
:1055E00040E251E40E94040FDC01CB01BC01CD017B
:1055F0000E944900DC01CB0198AB8FA70FC088EC5B
:1056000090E09EA78DA78DA59EA50197F1F79EA777
:105610008DA78FA598A9019798AB8FA78FA598A95B
:10562000009769F714C069A97AA98BA99CA90E945F
:105630004900DC01CB0198AB8FA78FA598A99CA747
:105640008BA78BA59CA50197F1F79CA78BA70E9420
:10565000E8278EE690E060E040E00E945626CE010A
:10566000CF960E94C4288FAD0E94BD2080E090E0BC
:10567000A6E1B4E48FA398A7A9A7BAA76FA178A5BC
:1056800089A59AA520E030E04AEF54E40E94040F77
:10569000DC01CB018BA39CA3ADA3BEA36BA17CA11A
:1056A0008DA19EA120E030E040E85FE30E945E1003
:1056B00088232CF481E090E09AA389A33FC06BA1DA
:1056C0007CA18DA19EA120E03FEF4FE757E40E940F
:1056D000FE0F18164CF56FA178A589A59AA520E0B4
:1056E00030E040E251E40E94040FDC01CB01BC0138
:1056F000CD010E944900DC01CB019AA389A30FC010
:1057000088EC90E098A38F8F8F8D98A10197F1F787
:1057100098A38F8F89A19AA101979AA389A389A1A0
:105720009AA1009769F714C06BA17CA18DA19EA1DD
:105730000E944900DC01CB019AA389A389A19AA107
:105740009E8F8D8F8D8D9E8D0197F1F79E8F8D8F02
:105750000E94E8278AE790E060E040E00E94562639
:10576000CE01CD960E94C4288DAD9EADC0979EAF50
:105770008DAF2DAD3EADC901990F880B982F590102
:10578000C82ED82EE82EF82E082F182F2A2D3B2DA4
:105790004C2D5D2D6E2D7F2D802F912F0E94882600
:1057A00080E090E0A6E1B4E4898F9A8FAB8FBC8F44
:1057B000698D7A8D8B8D9C8D20E030E04AEF54E42A
:1057C0000E94040FDC01CB018D8B9E8BAF8BB88FB9
:1057D0006D897E898F89988D20E030E040E85FE315
:1057E0000E945E1088232CF481E090E09C8B8B8BD0
:1057F0003FC06D897E898F89988D20E03FEF4FE70C
:1058000057E40E94FE0F18164CF5698D7A8D8B8D2A
:105810009C8D20E030E040E251E40E94040FDC0166
:10582000CB01BC01CD010E944900DC01CB019C8B66
:105830008B8B0FC088EC90E09A8B898B89899A8931
:105840000197F1F79A8B898B8B899C8901979C8BA7
:105850008B8B8B899C89009769F714C06D897E8931
:105860008F89988D0E944900DC01CB019C8B8B8B2A
:105870008B899C89988B8F878F8598890197F1F701
:10588000988B8F870E94E8278FAD282F30E02296D3
:105890003FAF2EAF229722964EAD5FAD22974B328F
:1058A0005105F1F022968EAD9FAD22978C32910575
:1058B00044F422962EAD3FAD22972A32310511F1E4
:1058C00046C022964EAD5FAD22974D32510589F00C
:1058D00022968EAD9FAD22978F32910511F137C080
:1058E0008BAD9CAD2DAD3EAD820F931F9AAF89AFAE
:1058F00035C08BAD9CAD2DAD3EAD821B930B9AAFE9
:1059000089AF2CC08BAD9CAD2DAD3EADAC01429F9F
:10591000C001439F900D529F900D11249AAF89AF03
:105920001DC08DAD9EAD009759F08BAD9CAD2DADDA
:105930003EADB9010E94ED30CB019AAF89AF0EC0E8
:1059400089E890E060E040E00E94562698C08BE92C
:1059500090E060E040E00E94562691C08CEA90E022
:1059600061E040E00E94562689AD9AAD990F880B00
:10597000982FA9ACBAACC82ED82EE82EF82E082F36
:10598000182F2A2D3B2D4C2D5D2D6E2D7F2D802F18
:10599000912F0E94882680E090E0AAE7B4E48B87EC
:1059A0009C87AD87BE876B857C858D859E8520E035
:1059B00030E04AEF54E40E94040FDC01CB018F83F6
:1059C0009887A987BA876F81788589859A8520E02D
:1059D00030E040E85FE30E945E1088232CF481E011
:1059E00090E09E838D833FC06F81788589859A85FD
:1059F00020E03FEF4FE757E40E94FE0F18164CF5EA
:105A00006B857C858D859E8520E030E040E251E409
:105A10000E94040FDC01CB01BC01CD010E944900B2
:105A2000DC01CB019E838D830FC088EC90E09C83CA
:105A30008B838B819C810197F1F79C838B838D8174
:105A40009E8101979E838D838D819E81009769F74A
:105A500014C06F81788589859A850E944900DC0190
:105A6000CB019E838D838D819E819A8389838981D9
:105A70009A810197F1F79A8389830E94E827CF5B87
:105A8000DF4F0FB6F894DEBF0FBECDBFCF91DF91D1
:105A90001F910F91FF90EF90DF90CF90BF90AF904C
:105AA0000895AF92BF92CF92DF92EF92FF920F9341
:105AB0001F93DF93CF93CDB7DEB7C055D0400FB65D
:105AC000F894DEBF0FBECDBF0E94D9130E9488128A
:105AD0000E94261D0E94B6230E944628FE01E55B17
