:100000000C942D000C94B6010C94B6010C94B6011E
:100010000C94B6010C94B6010C94B6010C94B60184
:100020000C94B6010C94B6010C94B6010C94B60174
:100030000C94B6010C94B6010C94B6010C94B60164
:100040000C94B6010C94B6010C94B6010C94B60154
:100050000C94B60100600062800011241FBECFE541
:10006000D8E0DEBFCDBFE4E5F0E040E017C0B591D9
:10007000A59135912591059107FD0CC0959185912C
:10008000EF01F92FE82F05900D92A217B307D9F7CA
:10009000FE0104C01D92A217B307E1F7E935F4078A
:0E00A00031F70E947C010C94AB01F894FFCF65
:1000AE00843008F0D3C0683008F0D0C0433008F078
:1000BE00CDC08130C9F138F0823009F466C083308A
:1000CE0009F494C00895413079F018F04230E1F00F
:1000DE0008952AB381E090E002C0880F991F6A95B7
:1000EE00E2F7822B8ABB08952AB381E090E002C02A
:1000FE00880F991F6A95E2F7982F909592239ABBD5
:10010E009BB3892B8BBB08952AB381E090E002C08C
:10011E00880F991F6A95E2F78095922F98239ABBC4
:10012E009BB389238BBB0895413079F018F0423090
:10013E00E1F0089527B381E090E002C0880F991F87
:10014E006A95E2F7822B87BB089527B381E090E092
:10015E0002C0880F991F6A95E2F7982F9095922307
:10016E0097BB98B3892B88BB089527B381E090E0A5
:10017E0002C0880F991F6A95E2F78095922F9823F7
:10018E0097BB98B3892388BB0895413079F018F056
:10019E004230E1F0089524B381E090E002C0880F70
:1001AE00991F6A95E2F7822B84BB089524B381E0F0
:1001BE0090E002C0880F991F6A95E2F7982F9095EC
:1001CE00922394BB95B3892B85BB089524B381E00C
:1001DE0090E002C0880F991F6A95E2F78095922FE2
:1001EE00982394BB95B3892385BB0895413079F04C
:1001FE0018F04230E1F0089521B381E090E002C0A2
:10020E00880F991F6A95E2F7822B81BB089521B35F
:10021E0081E090E002C0880F991F6A95E2F7982F4F
:10022E009095922391BB92B3892B82BB089521B3F3
:10023E0081E090E002C0880F991F6A95E2F78095E1
:0E024E00922F982391BB92B3892382BB08950F
:10025C00843008F04AC0633008F047C08130B1F0F8
:10026C0028F0823019F1833089F10895613039F02A
:10027C0018F0623041F008958FEF8ABB08951ABAD6
:10028C008FEF8BBB08951ABA1BBA0895613039F001
:10029C0018F0623041F008958FEF87BB089517BABC
:1002AC008FEF88BB089517BA18BA0895613039F0EA
:1002BC0018F0623041F008958FEF84BB089514BAA2
:1002CC008FEF85BB089514BA15BA0895613039F0D3
:1002DC0018F0623041F008958FEF81BB089511BA88
:0C02EC008FEF82BB089511BA12BA08957A
:1002F80060E080E00E942E0142E060E082E00E941F
:10030800570060E080E00E94A001989BFECF80919A
:100318006000909161000196909361008093600065
:100328009899FECF409724F01092610010926000D7
:08033800809160008BBBE9CF4E
:10034000843040F4882319F0833019F008956BBB92
:06035000089562BB089550
:10035600EC010E94BB010E94BA01CE010E94BC01C1
:06036600CE010E94B80167
:04036C000C940000ED
:040370000E94550092
:020374000895EA
:020376000895E8
:020378000895E6
:00000001FF
