:100000000C942D000C947B000C947B000C947B00D2
:100010000C947B000C947B000C947B000C947B0074
:100020000C947B000C947B000C947B000C947B0064
:100030000C947B000C947B000C947B000C947B0054
:100040000C947B000C947B000C947B000C947B0044
:100050000C947B0000600061800011241FBECFE57E
:10006000D8E0DEBFCDBFE4E5F0E040E017C0B591D9
:10007000A59135912591059107FD0CC0959185912C
:10008000EF01F92FE82F05900D92A217B307D9F7CA
:10009000FE0104C01D92A217B307E1F7E935F4078A
:0E00A00031F70E9457000C946A00F894FFCFCD
:1000AE000E947500B09BFECF809160008F5F8093A1
:1000BE006000B099FECF803110F0109260008091F8
:0600CE0060008BBBEFCFC8
:1000D400EC010E9480000E947F00CE010E948100FA
:0600E400CE010E947D0028
:0C00EA008FE08ABB17BA1BBA18BA089541
:0400F6000C94000066
:0400FA000E9455000B
:0200FE00089563
:02010000089560
:0201020008955E
:00000001FF
