:100000000C942A000C942B010C942B010C942B01C2
:100010000C942B010C942B010C942B010C942B01B0
:100020000C942B010C942B010C942B010C942B01A0
:100030000C942B010C942B010C942B010C942B0190
:100040000C942B010C942B010C942B010C942B0180
:100050000C942B0111241FBECFE5D8E0DEBFCDBF2D
:0C0060000E9405010C942001F894FFCFD1
:10006C00843008F07DC0683008F07AC0423008F067
:10007C0077C0813019F130F08230E1F1833009F42E
:10008C0055C00895442371F04130C1F42BB381E085
:10009C0090E0062E02C0880F991F0A94E2F7822B7B
:1000AC008BBB0CC02BB381E090E0062E02C0880FF6
:1000BC00991F0A94E2F7809582238BBB442371F03D
:1000CC004130C1F428B381E090E0062E02C0880FC5
:1000DC00991F0A94E2F7822B88BB0CC028B381E0ED
:1000EC0090E0062E02C0880F991F0A94E2F78095C3
:1000FC00822388BB442371F04130C1F425B381E0E5
:10010C0090E0062E02C0880F991F0A94E2F7822B0A
:10011C0085BB0CC025B381E090E0062E02C0880F91
:10012C00991F0A94E2F78095822385BB442369F0DA
:10013C004130B1F422B381E090E002C0880F991FE6
:10014C006A95E2F7822B82BB089522B381E090E09E
:10015C0002C0880F991F6A95E2F78095822382BBB3
:02016C000895F4
:10016E00843008F04AC0633008F047C08130B1F0E7
:10017E0028F0823019F1833089F10895613039F019
:10018E0018F0623041F008958FEF8ABB08951ABAC5
:10019E008FEF8BBB08951ABA1BBA0895613039F0F0
:1001AE0018F0623041F008958FEF87BB089517BAAB
:1001BE008FEF88BB089517BA18BA0895613039F0D9
:1001CE0018F0623041F008958FEF84BB089514BA91
:1001DE008FEF85BB089514BA15BA0895613039F0C2
:1001EE0018F0623041F008958FEF81BB089511BA77
:0C01FE008FEF82BB089511BA12BA089569
:10020A0060E080E00E94B70041E060E080E00E9488
:10021A00360083E294EF0197F1F700C0000040E056
:10022A0060E080E00E94360083E294EF0197F1F7E4
:06023A0000C00000E9CF46
:10024000EC010E9430010E942F01CE010E94310179
:06025000CE010E942D0109
:040256000C94000004
:04025A000E943400CA
:02025E00089501
:020260000895FF
:020262000895FD
:00000001FF
