:100000000C9438000C9466080C9466080C946608EE
:100010000C9466080C9466080C9466080C946608A8
:100020000C9466080C9466080C9466080C94660898
:100030000C9466080C9466080C9466080C94660888
:100040000C9466080C9466080C9466080C94660878
:100050000C9466087E00AB00D800050132015F01F8
:100060008C01B901E6011302006000920010DA0071
:1000700011241FBECFE5D8E0DEBFCDBFE8E6F0E03B
:1000800040E017C0B591A59135912591059107FDE7
:100090000CC095918591EF01F92FE82F05900D92F5
:1000A000A217B307D9F7FE0104C01D92A217B30728
:1000B000E1F7EF36F40731F70E9457050C94550825
:0400C000F894FFCFE2
:1000C400CF93DF93833008F0D9C190E021E1289FDA
:1000D400D001299FB00D1124A05ABF4F50962C91E6
:1000E400223008F0CDC14A30510508F0CBC1FA01E5
:1000F400E65DFF4F0C94600821E1289FE001299FF1
:10010400D00D1124C05ADF4F41E0698188810E94DB
:100114000B0641E06B818A810E940B0641E06D81F0
:100124008C810E940B0641E06F818E810E940B0638
:1001340041E0698588850E940B0641E06B858A85CC
:100144000E940B0640E06D858C850E940B0680E0C2
:100154009AC121E1289FE001299FD00D1124C05AA2
:10016400DF4F40E0698188810E940B0640E06B818B
:100174008A810E940B0640E06D818C810E940B06EF
:1001840040E06F818E810E940B0641E0698588857D
:100194000E940B0641E06B858A850E940B0640E0B5
:1001A4006D858C850E940B0680E06DC121E1289F3E
:1001B400E001299FD00D1124C05ADF4F41E069812D
:1001C40088810E940B0641E06B818A810E940B06A4
:1001D40040E06D818C810E940B0641E06F818E812D
:1001E4000E940B0641E0698588850E940B0640E069
:1001F4006B858A850E940B0641E06D858C850E9483
:100204000B0680E040C121E1289FE001299FD00D29
:100214001124C05ADF4F41E0698188810E940B0696
:1002240041E06B818A810E940B0641E06D818C81E3
:100234000E940B0641E06F818E810E940B0640E014
:10024400698588850E940B0640E06B858A850E943B
:100254000B0641E06D858C850E940B0680E013C17E
:1002640021E1289FE001299FD00D1124C05ADF4FBE
:1002740040E0698188810E940B0641E06B818A819C
:100284000E940B0641E06D818C810E940B0640E0C8
:100294006F818E810E940B0640E0698588850E94EB
:1002A4000B0641E06B858A850E940B0641E06D8553
:1002B4008C850E940B0680E0E6C021E1289FE001C6
:1002C400299FD00D1124C05ADF4F41E069818881F4
:1002D4000E940B0640E06B818A810E940B0641E07C
:1002E4006D818C810E940B0641E06F818E810E949A
:1002F4000B0640E0698588850E940B0641E06B850A
:100304008A850E940B0641E06D858C850E940B0650
:1003140080E0B9C021E1289FE001299FD00D11247C
:10032400C05ADF4F41E0698188810E940B0640E09A
:100334006B818A810E940B0641E06D818C810E9451
:100344000B0641E06F818E810E940B0641E06985B6
:1003540088850E940B0641E06B858A850E940B0606
:1003640041E06D858C850E940B0680E08CC021E104
:10037400289FE001299FD00D1124C05ADF4F41E08E
:10038400698188810E940B0641E06B818A810E9409
:100394000B0641E06D818C810E940B0640E06F8169
:1003A4008E810E940B0640E0698588850E940B06B9
:1003B40040E06B858A850E940B0640E06D858C8544
:1003C4000E940B0680E05FC021E1289FE001299F85
:1003D400D00D1124C05ADF4F41E0698188810E9409
:1003E4000B0641E06B818A810E940B0641E06D811E
:1003F4008C810E940B0641E06F818E810E940B0666
:1004040041E0698588850E940B0641E06B858A85F9
:100414000E940B0641E06D858C850E940B0680E0EE
:1004240032C021E1289FE001299FD00D1124C05A38
:10043400DF4F41E0698188810E940B0641E06B81B6
:100444008A810E940B0641E06D818C810E940B061B
:1004540041E06F818E810E940B0640E069858885AA
:100464000E940B0641E06B858A850E940B0641E0E1
:100474006D858C850E940B0680E005C084E003C076
:0C04840083E001C085E0DF91CF91089576
:10049000FC018181883008F0B4C19081913009F469
:1004A00072C038F0923009F4D8C0933009F43FC1DB
:1004B000AAC192819130F9F030F09230A9F19330D5
:1004C00009F449C0A2C19AB321E030E0A90102C0F9
:1004D000440F551F8A95E2F7842F809589238ABBA4
:1004E0008BB3018002C0220F331F0A94E2F7282B3E
:1004F0002BBB80E008959AB321E030E0A90102C04F
:10050000440F551F8A95E2F7842F809589238ABB73
:100510008BB3018002C0220F331F0A94E2F72095AB
:1005200028232BBB80E008954AB321E030E0B901D5
:1005300002C0660F771F8A95E2F7CB01842B8ABB36
:100540008BB3018002C0220F331F0A94E2F7282BDD
:100550002BBB80E008954AB321E030E0B90102C02E
:10056000660F771F8A95E2F7CB01842B8ABB8BB38A
:10057000018002C0220F331F0A94E2F7209528233E
:100580002BBB80E0089592819130F9F030F09230E9
:10059000A9F1933009F449C03AC197B321E030E0A2
:1005A000A90102C0440F551F8A95E2F7842F809558
:1005B000892387BB88B3018002C0220F331F0A94AE
:1005C000E2F7282B28BB80E0089597B321E030E0C4
:1005D000A90102C0440F551F8A95E2F7842F809528
:1005E000892387BB88B3018002C0220F331F0A947E
:1005F000E2F72095282328BB80E0089547B321E047
:1006000030E0B90102C0660F771F8A95E2F7CB018F
:10061000842B87BB88B3018002C0220F331F0A944A
:10062000E2F7282B28BB80E0089547B321E030E0B3
:10063000B90102C0660F771F8A95E2F7CB01842BC0
:1006400087BB88B3018002C0220F331F0A94E2F7F0
:100650002095282328BB80E0089592819130F9F0FD
:1006600030F09230A9F1933009F449C0D2C094B36C
:1006700021E030E0A90102C0440F551F8A95E2F73E
:10068000842F8095892384BB85B3018002C0220F0B
:10069000331F0A94E2F7282B25BB80E0089594B31A
:1006A00021E030E0A90102C0440F551F8A95E2F70E
:1006B000842F8095892384BB85B3018002C0220FDB
:1006C000331F0A94E2F72095282325BB80E0089584
:1006D00044B321E030E0B90102C0660F771F8A956C
:1006E000E2F7CB01842B84BB85B3018002C0220FCB
:1006F000331F0A94E2F7282B25BB80E0089544B30A
:1007000021E030E0B90102C0660F771F8A95E2F759
:10071000CB01842B84BB85B3018002C0220F331F21
:100720000A94E2F72095282325BB80E00895928162
:100730009130F9F030F09230A9F1933009F449C0CA
:100740006AC091B321E030E0A90102C0440F551FF7
:100750008A95E2F7842F8095892381BB82B301803B
:1007600002C0220F331F0A94E2F7282B22BB80E03D
:10077000089591B321E030E0A90102C0440F551F54
:100780008A95E2F7842F8095892381BB82B301800B
:1007900002C0220F331F0A94E2F72095282322BBC0
:1007A00080E0089541B321E030E0B90102C0660F56
:1007B000771F8A95E2F7CB01842B81BB82B301803E
:1007C00002C0220F331F0A94E2F7282B22BB80E0DD
:1007D000089541B321E030E0B90102C0660F771FF0
:1007E0008A95E2F7CB01842B81BB82B3018002C0E2
:1007F000220F331F0A94E2F72095282322BB80E0C2
:10080000089581E0089582E0089583E0089583E0EB
:0A081000089583E0089583E0089541
:10081A001F93CF93DF9300D000D0CDB7DEB71C82F1
:10082A001C8210E032C1EC8181E1E89FF0011124C1
:10083A00E05AFF4F8089882359F0EC8181E1E89FD3
:10084A00F0011124E05AFF4F8089813009F019C163
:10085A00EC8181E18E9FF0011124E05AFF4F9081D3
:10086A009983EC818E9FF0011124E05AFF4F918108
:10087A009A83EC818E9FF0011124E05AFF4F808900
:10088A00811103C083E08B8302C082E08B83CE0197
:10089A0001960E944802EC8181E18E9FF0011124A9
:1008AA00E05AFF4F92819983EC818E9FF0011124C7
:1008BA00E05AFF4F93819A83EC818E9FF0011124B5
:1008CA00E05AFF4F8089811103C083E08B8302C005
:1008DA0082E08B83CE0101960E944802EC8181E17D
:1008EA008E9FF0011124E05AFF4F94819983EC8185
:1008FA008E9FF0011124E05AFF4F95819A83EC8173
:10090A008E9FF0011124E05AFF4F8089811103C0A4
:10091A0083E08B8302C082E08B83CE0101960E9422
:10092A004802EC8181E18E9FF0011124E05AFF4FC9
:10093A0096819983EC818E9FF0011124E05AFF4F32
:10094A0097819A83EC818E9FF0011124E05AFF4F20
:10095A008089811103C083E08B8302C082E08B838C
:10096A00CE0101960E944802EC8181E18E9FF0013E
:10097A001124E05AFF4F90859983EC818E9FF001F4
:10098A001124E05AFF4F91859A83EC818E9FF001E2
:10099A001124E05AFF4F8089811103C083E08B83C1
:1009AA0002C082E08B83CE0101960E944802EC814C
:1009BA0081E18E9FF0011124E05AFF4F92859983BD
:1009CA00EC818E9FF0011124E05AFF4F93859A83A0
:1009DA00EC818E9FF0011124E05AFF4F808981112A
:1009EA0003C083E08B8302C082E08B83CE01019631
:1009FA000E944802EC8181E18E9FF0011124E05AA5
:100A0A00FF4F94859983EC818E9FF0011124E05A5F
:100A1A00FF4F95859A83EC818E9FF0011124E05A4D
:100A2A00FF4F8089811103C083E08B8302C082E07B
:100A3A008B83CE0101960E944802EC8181E18E9F50
:100A4A00F0011124E05AFF4F96859983EC818E9F1D
:100A5A00F0011124E05AFF4F97859A83EC818E9F0B
:100A6A00F0011124E05AFF4F8089811103C083E00D
:100A7A008B8302C082E08B83CE0101960E944802DA
:100A8A0001C013E08C818F5F8C838C81823008F4E3
:100A9A00CACE812F0F900F900F900F90DF91CF91B8
:040AAA001F910895FB
:100AAE00CF93DF9300D00F92CDB7DEB70E944908E7
:100ABE000E94A5060E94AE070E940D0419821A829A
:100ACE001B8210E0612F70E080E090E00E94F3073F
:100ADE00BE016F5F7F4F80E00E941E07BE016E5FFA
:100AEE007F4F81E00E941E07BE016D5F7F4F82E047
:100AFE000E941E078981813041F52FE788E391E03E
:100B0E00215080409040E1F700C000008981813083
:100B1E00C1F4143608F41F5F612F70E080E090E09E
:100B2E000E94F30740E050E066E070E080E090E065
:100B3E000E940B0606C0BE016F5F7F4F80E00E94D1
:100B4E001E0789818130B9F3BDCF8A81813031F59D
:100B5E002FE788E391E0215080409040E1F700C0FC
:100B6E0000008A818130B1F41150612F70E080E075
:100B7E0090E00E94F30740E050E066E070E080E015
:100B8E0090E00E940B0606C0BE016E5F7F4F81E0B3
:100B9E000E941E078A818130B9F394CF8B818130F8
:100BAE0009F090CF2FE788E391E0215080409040EC
:100BBE00E1F700C000008B81813011F510C0612F6C
:100BCE0070E080E090E00E94F3072FEF89E698E155
:100BDE00215080409040E1F700C0000011501111EB
:100BEE00EECF41E050E066E070E080E090E00E94E1
:100BFE000B0606C0BE016D5F7F4F82E00E941E078E
:080C0E008B818130B9F35ECF48
:100C1600843008F087C0683008F086C0423008F09B
:100C260085C0813031F138F0823009F440C083301C
:100C360009F45BC07DC0442379F0413009F07AC0E5
:100C46002BB381E090E002C0880F991F6A95E2F706
:100C5600822B8BBB80E008952BB381E090E002C02D
:100C6600880F991F6A95E2F7809582238BBB80E0F7
:100C76000895442379F0413009F05EC028B381E03D
:100C860090E002C0880F991F6A95E2F7822B88BB15
:100C960080E0089528B381E090E002C0880F991F94
:100CA6006A95E2F78095822388BB80E00895442305
:100CB60079F0413009F042C025B381E090E002C0EE
:100CC600880F991F6A95E2F7822B85BB80E008950D
:100CD60025B381E090E002C0880F991F6A95E2F77C
:100CE6008095822385BB80E00895442371F04130CE
:100CF60039F522B381E090E002C0880F991F6A950A
:100D0600E2F7822B82BB80E0089522B381E090E077
:100D160002C0880F991F6A95E2F78095822382BBED
:100D260080E0089582E0089583E0089586E00895BE
:100D360080E0089580E0089580E0089580E00895B9
:040D460080E00895AC
:100D4A00FF920F931F93CF93DF9300D00F92CDB7EB
:100D5A00DEB700E010E00F2EF5E0FF2EF02D5BC0AD
:100D6A0080919000823008F04EC0F801EE0FFF1F0C
:100D7A00EE0FFF1FE257FF4F8081898381818A83AB
:100D8A008281813069F4F801EE0FFF1FEE0FFF1F19
:100D9A00E257FF4F9381913019F482E08B832CC084
:100DAA00813069F4F801EE0FFF1FEE0FFF1FE257C3
:100DBA00FF4F9381911103C083E08B831DC0811182
:100DCA000DC0F801EE0FFF1FEE0FFF1FE257FF4F96
:100DDA009381913019F483E08B830EC081110CC08A
:100DEA00F801EE0FFF1FEE0FFF1FE257FF4F83813F
:100DFA00811102C082E08B83CE0101960E944802D3
:100E0A00811105C006C06894FF24F1F802C0FF24CE
:100E1A00F3940F5F1F4F101611060CF0A1CF8F2D00
:100E2A000F900F900F90DF91CF911F910F91FF902C
:020E3A00089519
:100E3C00EF92FF920F931F93CF93DF930F92CDB747
:100E4C00DEB78330A8F57B011982082F10E0000F64
:100E5C00111F000F111F0E571F4FF8016181AE01BA
:100E6C004F5F5F4F80810E946707F801928191115B
:100E7C000CC09981911104C091E0F701908319C0C5
:100E8C00913081F4F701108214C0913069F499818A
:100E9C00913019F4F70190830CC0911107C0F70140
:100EAC00108207C082E005C082E003C082E001C06E
:100EBC0083E00F90DF91CF911F910F91FF90EF90F6
:020ECC00089587
:100ECE008430E8F56830E8F541155105E1F18130DF
:100EDE0091F028F08230D9F0833029F136C089B3F1
:100EEE0090E002C0959587956A95E2F78170FA01B8
:100EFE00808380E0089586B390E002C09595879533
:100F0E006A95E2F78170FA01808380E0089583B3D9
:100F1E0090E002C0959587956A95E2F78170FA0187
:100F2E00808380E0089580B390E002C09595879508
:100F3E006A95E2F78170FA01808380E0089582E07D
:0E0F4E00089583E0089585E0089580E00895F9
:100F5C00FF920F931F93CF93DF9300D00F92CDB7D7
:100F6C00DEB7F12C00E010E02BC0F801EE0FFF1FF4
:100F7C00EE0FFF1FEE57FF4F82818230C8F4F8014D
:100F8C00EE0FFF1FEE0FFF1FEE57FF4F908199835F
:100F9C0091819A83813011F48B8303C0811101C03C
:100FAC001B82CE0101960E944802811105C006C029
:100FBC006894FF24F1F802C0FF24F3940F5F1F4FD5
:100FCC000330110594F28F2D0F900F900F90DF913D
:0A0FDC00CF911F910F91FF9008952F
:100FE600CF92DF92EF92FF92CF93603127E27207A2
:100FF6008105910510F4C6E001C0C5E064367105AF
:1010060081059105C8F42AE030E040E050E00E94F6
:1010160027086B017C01BA01A901552766277727A6
:1010260080E00E946200B701A60155276627772750
:1010360081E00E94620001C0C5E08C2FCF91FF9035
:08104600EF90DF90CF900895B8
:10104E00A1E21A2EAA1BBB1BFD010DC0AA1FBB1FBE
:10105E00EE1FFF1FA217B307E407F50720F0A21B30
:10106E00B30BE40BF50B661F771F881F991F1A949D
:10107E0069F760957095809590959B01AC01BD01C7
:04108E00CF010895F1
:101092008AEE8ABB8FEF87BB84BB81BB9FEB9BBB76
:0810A20088BB85BB82BB0895E9
:1010AA00EC010E946B080E946A08CE010E946C083B
:0610BA00CE010E9468084F
:0C10C000EE0FFF1F0590F491E02D099445
:0410CC000C94000080
:0410D0000E9460001A
:0210D40008957D
:0210D60008957B
:0210D800089579
:1010DA0002000201020202030204020502060207DA
:1010EA0000030003010302030303040305030603C9
:0210FA000700ED
:0C10FC00000000000002000000040000E2
:0411080000060100DC
:00000001FF
